{
	"contracts/3_Ballot.sol": {
		"AdvancedCounter": {
			"abi": [
				{
					"inputs": [],
					"stateMutability": "nonpayable",
					"type": "constructor"
				},
				{
					"anonymous": false,
					"inputs": [
						{
							"indexed": true,
							"internalType": "uint256",
							"name": "value",
							"type": "uint256"
						},
						{
							"indexed": true,
							"internalType": "address",
							"name": "achiever",
							"type": "address"
						},
						{
							"indexed": false,
							"internalType": "string",
							"name": "message",
							"type": "string"
						}
					],
					"name": "Milestone",
					"type": "event"
				},
				{
					"anonymous": false,
					"inputs": [
						{
							"indexed": true,
							"internalType": "address",
							"name": "changer",
							"type": "address"
						},
						{
							"indexed": true,
							"internalType": "uint256",
							"name": "newValue",
							"type": "uint256"
						},
						{
							"indexed": true,
							"internalType": "uint256",
							"name": "oldValue",
							"type": "uint256"
						},
						{
							"indexed": false,
							"internalType": "string",
							"name": "operation",
							"type": "string"
						}
					],
					"name": "ValueChanged",
					"type": "event"
				},
				{
					"stateMutability": "payable",
					"type": "fallback"
				},
				{
					"inputs": [
						{
							"internalType": "uint256",
							"name": "amount",
							"type": "uint256"
						}
					],
					"name": "add",
					"outputs": [],
					"stateMutability": "nonpayable",
					"type": "function"
				},
				{
					"inputs": [],
					"name": "decrement",
					"outputs": [],
					"stateMutability": "nonpayable",
					"type": "function"
				},
				{
					"inputs": [],
					"name": "double",
					"outputs": [],
					"stateMutability": "nonpayable",
					"type": "function"
				},
				{
					"inputs": [],
					"name": "get",
					"outputs": [
						{
							"internalType": "uint256",
							"name": "",
							"type": "uint256"
						}
					],
					"stateMutability": "view",
					"type": "function"
				},
				{
					"inputs": [],
					"name": "getStats",
					"outputs": [
						{
							"internalType": "uint256",
							"name": "",
							"type": "uint256"
						},
						{
							"internalType": "uint256",
							"name": "",
							"type": "uint256"
						},
						{
							"internalType": "address",
							"name": "",
							"type": "address"
						}
					],
					"stateMutability": "view",
					"type": "function"
				},
				{
					"inputs": [
						{
							"internalType": "address",
							"name": "user",
							"type": "address"
						}
					],
					"name": "getUserStats",
					"outputs": [
						{
							"internalType": "uint256",
							"name": "",
							"type": "uint256"
						}
					],
					"stateMutability": "view",
					"type": "function"
				},
				{
					"inputs": [],
					"name": "halve",
					"outputs": [],
					"stateMutability": "nonpayable",
					"type": "function"
				},
				{
					"inputs": [],
					"name": "increment",
					"outputs": [],
					"stateMutability": "nonpayable",
					"type": "function"
				},
				{
					"inputs": [],
					"name": "lastChanger",
					"outputs": [
						{
							"internalType": "address",
							"name": "",
							"type": "address"
						}
					],
					"stateMutability": "view",
					"type": "function"
				},
				{
					"inputs": [],
					"name": "reset",
					"outputs": [],
					"stateMutability": "nonpayable",
					"type": "function"
				},
				{
					"inputs": [
						{
							"internalType": "uint256",
							"name": "newValue",
							"type": "uint256"
						}
					],
					"name": "set",
					"outputs": [],
					"stateMutability": "nonpayable",
					"type": "function"
				},
				{
					"inputs": [
						{
							"internalType": "uint256",
							"name": "amount",
							"type": "uint256"
						}
					],
					"name": "subtract",
					"outputs": [],
					"stateMutability": "nonpayable",
					"type": "function"
				},
				{
					"inputs": [],
					"name": "totalOperations",
					"outputs": [
						{
							"internalType": "uint256",
							"name": "",
							"type": "uint256"
						}
					],
					"stateMutability": "view",
					"type": "function"
				},
				{
					"inputs": [
						{
							"internalType": "address",
							"name": "",
							"type": "address"
						}
					],
					"name": "userOperations",
					"outputs": [
						{
							"internalType": "uint256",
							"name": "",
							"type": "uint256"
						}
					],
					"stateMutability": "view",
					"type": "function"
				},
				{
					"stateMutability": "payable",
					"type": "receive"
				}
			],
			"devdoc": {
				"kind": "dev",
				"methods": {},
				"version": 1
			},
			"evm": {
				"assembly": "    /* \"contracts/3_Ballot.sol\":57:3003  contract AdvancedCounter {... */\n  mstore(0x40, 0x80)\n    /* \"contracts/3_Ballot.sol\":564:633  constructor() {... */\n  callvalue\n  dup1\n  iszero\n  tag_1\n  jumpi\n  revert(0x00, 0x00)\ntag_1:\n  pop\n    /* \"contracts/3_Ballot.sol\":596:597  0 */\n  0x00\n    /* \"contracts/3_Ballot.sol\":588:593  value */\n  0x00\n    /* \"contracts/3_Ballot.sol\":588:597  value = 0 */\n  dup2\n  swap1\n  sstore\n  pop\n    /* \"contracts/3_Ballot.sol\":625:626  0 */\n  0x00\n    /* \"contracts/3_Ballot.sol\":607:622  totalOperations */\n  0x01\n    /* \"contracts/3_Ballot.sol\":607:626  totalOperations = 0 */\n  dup2\n  swap1\n  sstore\n  pop\n    /* \"contracts/3_Ballot.sol\":57:3003  contract AdvancedCounter {... */\n  dataSize(sub_0)\n  dup1\n  dataOffset(sub_0)\n  0x00\n  codecopy\n  0x00\n  return\nstop\n\nsub_0: assembly {\n        /* \"contracts/3_Ballot.sol\":57:3003  contract AdvancedCounter {... */\n      mstore(0x40, 0x80)\n      jumpi(tag_1, lt(calldatasize, 0x04))\n      shr(0xe0, calldataload(0x00))\n      dup1\n      0x8fdb7189\n      gt\n      tag_17\n      jumpi\n      dup1\n      0xc59d4847\n      gt\n      tag_18\n      jumpi\n      dup1\n      0xc59d4847\n      eq\n      tag_13\n      jumpi\n      dup1\n      0xd09de08a\n      eq\n      tag_14\n      jumpi\n      dup1\n      0xd826f88f\n      eq\n      tag_15\n      jumpi\n      dup1\n      0xed232029\n      eq\n      tag_16\n      jumpi\n      jump(tag_2)\n    tag_18:\n      dup1\n      0x8fdb7189\n      eq\n      tag_10\n      jumpi\n      dup1\n      0x9dc9340a\n      eq\n      tag_11\n      jumpi\n      dup1\n      0xb398e0b7\n      eq\n      tag_12\n      jumpi\n      jump(tag_2)\n    tag_17:\n      dup1\n      0x3a0d17b2\n      gt\n      tag_19\n      jumpi\n      dup1\n      0x3a0d17b2\n      eq\n      tag_6\n      jumpi\n      dup1\n      0x4e43603a\n      eq\n      tag_7\n      jumpi\n      dup1\n      0x60fe47b1\n      eq\n      tag_8\n      jumpi\n      dup1\n      0x6d4ce63c\n      eq\n      tag_9\n      jumpi\n      jump(tag_2)\n    tag_19:\n      dup1\n      0x1003e2d2\n      eq\n      tag_3\n      jumpi\n      dup1\n      0x1dc05f17\n      eq\n      tag_4\n      jumpi\n      dup1\n      0x2baeceb7\n      eq\n      tag_5\n      jumpi\n      jump(tag_2)\n    tag_1:\n    tag_2:\n      stop\n        /* \"contracts/3_Ballot.sol\":1286:1452  function add(uint256 amount) public {... */\n    tag_3:\n      callvalue\n      dup1\n      iszero\n      tag_24\n      jumpi\n      revert(0x00, 0x00)\n    tag_24:\n      pop\n      tag_25\n      0x04\n      dup1\n      calldatasize\n      sub\n      dup2\n      add\n      swap1\n      tag_26\n      swap2\n      swap1\n      tag_27\n      jump\t// in\n    tag_26:\n      tag_28\n      jump\t// in\n    tag_25:\n      stop\n        /* \"contracts/3_Ballot.sol\":1458:1654  function subtract(uint256 amount) public {... */\n    tag_4:\n      callvalue\n      dup1\n      iszero\n      tag_29\n      jumpi\n      revert(0x00, 0x00)\n    tag_29:\n      pop\n      tag_30\n      0x04\n      dup1\n      calldatasize\n      sub\n      dup2\n      add\n      swap1\n      tag_31\n      swap2\n      swap1\n      tag_27\n      jump\t// in\n    tag_31:\n      tag_32\n      jump\t// in\n    tag_30:\n      stop\n        /* \"contracts/3_Ballot.sol\":1089:1280  function decrement() public {... */\n    tag_5:\n      callvalue\n      dup1\n      iszero\n      tag_33\n      jumpi\n      revert(0x00, 0x00)\n    tag_33:\n      pop\n      tag_34\n      tag_35\n      jump\t// in\n    tag_34:\n      stop\n        /* \"contracts/3_Ballot.sol\":184:233  mapping(address => uint256) public userOperations */\n    tag_6:\n      callvalue\n      dup1\n      iszero\n      tag_36\n      jumpi\n      revert(0x00, 0x00)\n    tag_36:\n      pop\n      tag_37\n      0x04\n      dup1\n      calldatasize\n      sub\n      dup2\n      add\n      swap1\n      tag_38\n      swap2\n      swap1\n      tag_39\n      jump\t// in\n    tag_38:\n      tag_40\n      jump\t// in\n    tag_37:\n      mload(0x40)\n      tag_41\n      swap2\n      swap1\n      tag_42\n      jump\t// in\n    tag_41:\n      mload(0x40)\n      dup1\n      swap2\n      sub\n      swap1\n      return\n        /* \"contracts/3_Ballot.sol\":2318:2428  function getUserStats(address user) public view returns (uint256) {... */\n    tag_7:\n      callvalue\n      dup1\n      iszero\n      tag_43\n      jumpi\n      revert(0x00, 0x00)\n    tag_43:\n      pop\n      tag_44\n      0x04\n      dup1\n      calldatasize\n      sub\n      dup2\n      add\n      swap1\n      tag_45\n      swap2\n      swap1\n      tag_39\n      jump\t// in\n    tag_45:\n      tag_46\n      jump\t// in\n    tag_44:\n      mload(0x40)\n      tag_47\n      swap2\n      swap1\n      tag_42\n      jump\t// in\n    tag_47:\n      mload(0x40)\n      dup1\n      swap2\n      sub\n      swap1\n      return\n        /* \"contracts/3_Ballot.sol\":749:918  function set(uint256 newValue) public {... */\n    tag_8:\n      callvalue\n      dup1\n      iszero\n      tag_48\n      jumpi\n      revert(0x00, 0x00)\n    tag_48:\n      pop\n      tag_49\n      0x04\n      dup1\n      calldatasize\n      sub\n      dup2\n      add\n      swap1\n      tag_50\n      swap2\n      swap1\n      tag_27\n      jump\t// in\n    tag_50:\n      tag_51\n      jump\t// in\n    tag_49:\n      stop\n        /* \"contracts/3_Ballot.sol\":669:743  function get() public view returns (uint256) {... */\n    tag_9:\n      callvalue\n      dup1\n      iszero\n      tag_52\n      jumpi\n      revert(0x00, 0x00)\n    tag_52:\n      pop\n      tag_53\n      tag_54\n      jump\t// in\n    tag_53:\n      mload(0x40)\n      tag_55\n      swap2\n      swap1\n      tag_42\n      jump\t// in\n    tag_55:\n      mload(0x40)\n      dup1\n      swap2\n      sub\n      swap1\n      return\n        /* \"contracts/3_Ballot.sol\":1660:1813  function double() public {... */\n    tag_10:\n      callvalue\n      dup1\n      iszero\n      tag_56\n      jumpi\n      revert(0x00, 0x00)\n    tag_56:\n      pop\n      tag_57\n      tag_58\n      jump\t// in\n    tag_57:\n      stop\n        /* \"contracts/3_Ballot.sol\":1819:1943  function halve() public {... */\n    tag_11:\n      callvalue\n      dup1\n      iszero\n      tag_59\n      jumpi\n      revert(0x00, 0x00)\n    tag_59:\n      pop\n      tag_60\n      tag_61\n      jump\t// in\n    tag_60:\n      stop\n        /* \"contracts/3_Ballot.sol\":151:177  address public lastChanger */\n    tag_12:\n      callvalue\n      dup1\n      iszero\n      tag_62\n      jumpi\n      revert(0x00, 0x00)\n    tag_62:\n      pop\n      tag_63\n      tag_64\n      jump\t// in\n    tag_63:\n      mload(0x40)\n      tag_65\n      swap2\n      swap1\n      tag_66\n      jump\t// in\n    tag_65:\n      mload(0x40)\n      dup1\n      swap2\n      sub\n      swap1\n      return\n        /* \"contracts/3_Ballot.sol\":2109:2312  function getStats()... */\n    tag_13:\n      callvalue\n      dup1\n      iszero\n      tag_67\n      jumpi\n      revert(0x00, 0x00)\n    tag_67:\n      pop\n      tag_68\n      tag_69\n      jump\t// in\n    tag_68:\n      mload(0x40)\n      tag_70\n      swap4\n      swap3\n      swap2\n      swap1\n      tag_71\n      jump\t// in\n    tag_70:\n      mload(0x40)\n      dup1\n      swap2\n      sub\n      swap1\n      return\n        /* \"contracts/3_Ballot.sol\":924:1083  function increment() public {... */\n    tag_14:\n      callvalue\n      dup1\n      iszero\n      tag_72\n      jumpi\n      revert(0x00, 0x00)\n    tag_72:\n      pop\n      tag_73\n      tag_74\n      jump\t// in\n    tag_73:\n      stop\n        /* \"contracts/3_Ballot.sol\":1949:2072  function reset() public {... */\n    tag_15:\n      callvalue\n      dup1\n      iszero\n      tag_75\n      jumpi\n      revert(0x00, 0x00)\n    tag_75:\n      pop\n      tag_76\n      tag_77\n      jump\t// in\n    tag_76:\n      stop\n        /* \"contracts/3_Ballot.sol\":115:145  uint256 public totalOperations */\n    tag_16:\n      callvalue\n      dup1\n      iszero\n      tag_78\n      jumpi\n      revert(0x00, 0x00)\n    tag_78:\n      pop\n      tag_79\n      tag_80\n      jump\t// in\n    tag_79:\n      mload(0x40)\n      tag_81\n      swap2\n      swap1\n      tag_42\n      jump\t// in\n    tag_81:\n      mload(0x40)\n      dup1\n      swap2\n      sub\n      swap1\n      return\n        /* \"contracts/3_Ballot.sol\":1286:1452  function add(uint256 amount) public {... */\n    tag_28:\n        /* \"contracts/3_Ballot.sol\":1332:1348  uint256 oldValue */\n      0x00\n        /* \"contracts/3_Ballot.sol\":1351:1356  value */\n      sload(0x00)\n        /* \"contracts/3_Ballot.sol\":1332:1356  uint256 oldValue = value */\n      swap1\n      pop\n        /* \"contracts/3_Ballot.sol\":1375:1381  amount */\n      dup2\n        /* \"contracts/3_Ballot.sol\":1366:1371  value */\n      0x00\n      0x00\n        /* \"contracts/3_Ballot.sol\":1366:1381  value += amount */\n      dup3\n      dup3\n      sload\n      tag_83\n      swap2\n      swap1\n      tag_84\n      jump\t// in\n    tag_83:\n      swap3\n      pop\n      pop\n      dup2\n      swap1\n      sstore\n      pop\n        /* \"contracts/3_Ballot.sol\":1391:1418  _logChange(\"add\", oldValue) */\n      tag_85\n      mload(0x40)\n      dup1\n      0x40\n      add\n      0x40\n      mstore\n      dup1\n      0x03\n      dup2\n      mstore\n      0x20\n      add\n      0x6164640000000000000000000000000000000000000000000000000000000000\n      dup2\n      mstore\n      pop\n        /* \"contracts/3_Ballot.sol\":1409:1417  oldValue */\n      dup3\n        /* \"contracts/3_Ballot.sol\":1391:1401  _logChange */\n      tag_86\n        /* \"contracts/3_Ballot.sol\":1391:1418  _logChange(\"add\", oldValue) */\n      jump\t// in\n    tag_85:\n        /* \"contracts/3_Ballot.sol\":1428:1445  _checkMilestone() */\n      tag_87\n        /* \"contracts/3_Ballot.sol\":1428:1443  _checkMilestone */\n      tag_88\n        /* \"contracts/3_Ballot.sol\":1428:1445  _checkMilestone() */\n      jump\t// in\n    tag_87:\n        /* \"contracts/3_Ballot.sol\":1322:1452  {... */\n      pop\n        /* \"contracts/3_Ballot.sol\":1286:1452  function add(uint256 amount) public {... */\n      pop\n      jump\t// out\n        /* \"contracts/3_Ballot.sol\":1458:1654  function subtract(uint256 amount) public {... */\n    tag_32:\n        /* \"contracts/3_Ballot.sol\":1509:1525  uint256 oldValue */\n      0x00\n        /* \"contracts/3_Ballot.sol\":1528:1533  value */\n      sload(0x00)\n        /* \"contracts/3_Ballot.sol\":1509:1533  uint256 oldValue = value */\n      swap1\n      pop\n        /* \"contracts/3_Ballot.sol\":1560:1566  amount */\n      dup2\n        /* \"contracts/3_Ballot.sol\":1551:1556  value */\n      sload(0x00)\n        /* \"contracts/3_Ballot.sol\":1551:1566  value >= amount */\n      lt\n      iszero\n        /* \"contracts/3_Ballot.sol\":1543:1580  require(value >= amount, \"Underflow\") */\n      tag_90\n      jumpi\n      mload(0x40)\n      0x08c379a000000000000000000000000000000000000000000000000000000000\n      dup2\n      mstore\n      0x04\n      add\n      tag_91\n      swap1\n      tag_92\n      jump\t// in\n    tag_91:\n      mload(0x40)\n      dup1\n      swap2\n      sub\n      swap1\n      revert\n    tag_90:\n        /* \"contracts/3_Ballot.sol\":1599:1605  amount */\n      dup2\n        /* \"contracts/3_Ballot.sol\":1590:1595  value */\n      0x00\n      0x00\n        /* \"contracts/3_Ballot.sol\":1590:1605  value -= amount */\n      dup3\n      dup3\n      sload\n      tag_93\n      swap2\n      swap1\n      tag_94\n      jump\t// in\n    tag_93:\n      swap3\n      pop\n      pop\n      dup2\n      swap1\n      sstore\n      pop\n        /* \"contracts/3_Ballot.sol\":1615:1647  _logChange(\"subtract\", oldValue) */\n      tag_95\n      mload(0x40)\n      dup1\n      0x40\n      add\n      0x40\n      mstore\n      dup1\n      0x08\n      dup2\n      mstore\n      0x20\n      add\n      0x7375627472616374000000000000000000000000000000000000000000000000\n      dup2\n      mstore\n      pop\n        /* \"contracts/3_Ballot.sol\":1638:1646  oldValue */\n      dup3\n        /* \"contracts/3_Ballot.sol\":1615:1625  _logChange */\n      tag_86\n        /* \"contracts/3_Ballot.sol\":1615:1647  _logChange(\"subtract\", oldValue) */\n      jump\t// in\n    tag_95:\n        /* \"contracts/3_Ballot.sol\":1499:1654  {... */\n      pop\n        /* \"contracts/3_Ballot.sol\":1458:1654  function subtract(uint256 amount) public {... */\n      pop\n      jump\t// out\n        /* \"contracts/3_Ballot.sol\":1089:1280  function decrement() public {... */\n    tag_35:\n        /* \"contracts/3_Ballot.sol\":1127:1143  uint256 oldValue */\n      0x00\n        /* \"contracts/3_Ballot.sol\":1146:1151  value */\n      sload(0x00)\n        /* \"contracts/3_Ballot.sol\":1127:1151  uint256 oldValue = value */\n      swap1\n      pop\n        /* \"contracts/3_Ballot.sol\":1177:1178  0 */\n      0x00\n        /* \"contracts/3_Ballot.sol\":1169:1174  value */\n      sload(0x00)\n        /* \"contracts/3_Ballot.sol\":1169:1178  value > 0 */\n      gt\n        /* \"contracts/3_Ballot.sol\":1161:1210  require(value > 0, \"Cannot decrement below zero\") */\n      tag_97\n      jumpi\n      mload(0x40)\n      0x08c379a000000000000000000000000000000000000000000000000000000000\n      dup2\n      mstore\n      0x04\n      add\n      tag_98\n      swap1\n      tag_99\n      jump\t// in\n    tag_98:\n      mload(0x40)\n      dup1\n      swap2\n      sub\n      swap1\n      revert\n    tag_97:\n        /* \"contracts/3_Ballot.sol\":1229:1230  1 */\n      0x01\n        /* \"contracts/3_Ballot.sol\":1220:1225  value */\n      0x00\n      0x00\n        /* \"contracts/3_Ballot.sol\":1220:1230  value -= 1 */\n      dup3\n      dup3\n      sload\n      tag_100\n      swap2\n      swap1\n      tag_94\n      jump\t// in\n    tag_100:\n      swap3\n      pop\n      pop\n      dup2\n      swap1\n      sstore\n      pop\n        /* \"contracts/3_Ballot.sol\":1240:1273  _logChange(\"decrement\", oldValue) */\n      tag_101\n      mload(0x40)\n      dup1\n      0x40\n      add\n      0x40\n      mstore\n      dup1\n      0x09\n      dup2\n      mstore\n      0x20\n      add\n      0x64656372656d656e740000000000000000000000000000000000000000000000\n      dup2\n      mstore\n      pop\n        /* \"contracts/3_Ballot.sol\":1264:1272  oldValue */\n      dup3\n        /* \"contracts/3_Ballot.sol\":1240:1250  _logChange */\n      tag_86\n        /* \"contracts/3_Ballot.sol\":1240:1273  _logChange(\"decrement\", oldValue) */\n      jump\t// in\n    tag_101:\n        /* \"contracts/3_Ballot.sol\":1117:1280  {... */\n      pop\n        /* \"contracts/3_Ballot.sol\":1089:1280  function decrement() public {... */\n      jump\t// out\n        /* \"contracts/3_Ballot.sol\":184:233  mapping(address => uint256) public userOperations */\n    tag_40:\n      mstore(0x20, 0x03)\n      dup1\n      0x00\n      mstore\n      keccak256(0x00, 0x40)\n      0x00\n      swap2\n      pop\n      swap1\n      pop\n      sload\n      dup2\n      jump\t// out\n        /* \"contracts/3_Ballot.sol\":2318:2428  function getUserStats(address user) public view returns (uint256) {... */\n    tag_46:\n        /* \"contracts/3_Ballot.sol\":2375:2382  uint256 */\n      0x00\n        /* \"contracts/3_Ballot.sol\":2401:2415  userOperations */\n      0x03\n        /* \"contracts/3_Ballot.sol\":2401:2421  userOperations[user] */\n      0x00\n        /* \"contracts/3_Ballot.sol\":2416:2420  user */\n      dup4\n        /* \"contracts/3_Ballot.sol\":2401:2421  userOperations[user] */\n      0xffffffffffffffffffffffffffffffffffffffff\n      and\n      0xffffffffffffffffffffffffffffffffffffffff\n      and\n      dup2\n      mstore\n      0x20\n      add\n      swap1\n      dup2\n      mstore\n      0x20\n      add\n      0x00\n      keccak256\n      sload\n        /* \"contracts/3_Ballot.sol\":2394:2421  return userOperations[user] */\n      swap1\n      pop\n        /* \"contracts/3_Ballot.sol\":2318:2428  function getUserStats(address user) public view returns (uint256) {... */\n      swap2\n      swap1\n      pop\n      jump\t// out\n        /* \"contracts/3_Ballot.sol\":749:918  function set(uint256 newValue) public {... */\n    tag_51:\n        /* \"contracts/3_Ballot.sol\":797:813  uint256 oldValue */\n      0x00\n        /* \"contracts/3_Ballot.sol\":816:821  value */\n      sload(0x00)\n        /* \"contracts/3_Ballot.sol\":797:821  uint256 oldValue = value */\n      swap1\n      pop\n        /* \"contracts/3_Ballot.sol\":839:847  newValue */\n      dup2\n        /* \"contracts/3_Ballot.sol\":831:836  value */\n      0x00\n        /* \"contracts/3_Ballot.sol\":831:847  value = newValue */\n      dup2\n      swap1\n      sstore\n      pop\n        /* \"contracts/3_Ballot.sol\":857:884  _logChange(\"set\", oldValue) */\n      tag_104\n      mload(0x40)\n      dup1\n      0x40\n      add\n      0x40\n      mstore\n      dup1\n      0x03\n      dup2\n      mstore\n      0x20\n      add\n      0x7365740000000000000000000000000000000000000000000000000000000000\n      dup2\n      mstore\n      pop\n        /* \"contracts/3_Ballot.sol\":875:883  oldValue */\n      dup3\n        /* \"contracts/3_Ballot.sol\":857:867  _logChange */\n      tag_86\n        /* \"contracts/3_Ballot.sol\":857:884  _logChange(\"set\", oldValue) */\n      jump\t// in\n    tag_104:\n        /* \"contracts/3_Ballot.sol\":894:911  _checkMilestone() */\n      tag_105\n        /* \"contracts/3_Ballot.sol\":894:909  _checkMilestone */\n      tag_88\n        /* \"contracts/3_Ballot.sol\":894:911  _checkMilestone() */\n      jump\t// in\n    tag_105:\n        /* \"contracts/3_Ballot.sol\":787:918  {... */\n      pop\n        /* \"contracts/3_Ballot.sol\":749:918  function set(uint256 newValue) public {... */\n      pop\n      jump\t// out\n        /* \"contracts/3_Ballot.sol\":669:743  function get() public view returns (uint256) {... */\n    tag_54:\n        /* \"contracts/3_Ballot.sol\":705:712  uint256 */\n      0x00\n        /* \"contracts/3_Ballot.sol\":731:736  value */\n      sload(0x00)\n        /* \"contracts/3_Ballot.sol\":724:736  return value */\n      swap1\n      pop\n        /* \"contracts/3_Ballot.sol\":669:743  function get() public view returns (uint256) {... */\n      swap1\n      jump\t// out\n        /* \"contracts/3_Ballot.sol\":1660:1813  function double() public {... */\n    tag_58:\n        /* \"contracts/3_Ballot.sol\":1695:1711  uint256 oldValue */\n      0x00\n        /* \"contracts/3_Ballot.sol\":1714:1719  value */\n      sload(0x00)\n        /* \"contracts/3_Ballot.sol\":1695:1719  uint256 oldValue = value */\n      swap1\n      pop\n        /* \"contracts/3_Ballot.sol\":1738:1739  2 */\n      0x02\n        /* \"contracts/3_Ballot.sol\":1729:1734  value */\n      0x00\n      0x00\n        /* \"contracts/3_Ballot.sol\":1729:1739  value *= 2 */\n      dup3\n      dup3\n      sload\n      tag_108\n      swap2\n      swap1\n      tag_109\n      jump\t// in\n    tag_108:\n      swap3\n      pop\n      pop\n      dup2\n      swap1\n      sstore\n      pop\n        /* \"contracts/3_Ballot.sol\":1749:1779  _logChange(\"double\", oldValue) */\n      tag_110\n      mload(0x40)\n      dup1\n      0x40\n      add\n      0x40\n      mstore\n      dup1\n      0x06\n      dup2\n      mstore\n      0x20\n      add\n      0x646f75626c650000000000000000000000000000000000000000000000000000\n      dup2\n      mstore\n      pop\n        /* \"contracts/3_Ballot.sol\":1770:1778  oldValue */\n      dup3\n        /* \"contracts/3_Ballot.sol\":1749:1759  _logChange */\n      tag_86\n        /* \"contracts/3_Ballot.sol\":1749:1779  _logChange(\"double\", oldValue) */\n      jump\t// in\n    tag_110:\n        /* \"contracts/3_Ballot.sol\":1789:1806  _checkMilestone() */\n      tag_111\n        /* \"contracts/3_Ballot.sol\":1789:1804  _checkMilestone */\n      tag_88\n        /* \"contracts/3_Ballot.sol\":1789:1806  _checkMilestone() */\n      jump\t// in\n    tag_111:\n        /* \"contracts/3_Ballot.sol\":1685:1813  {... */\n      pop\n        /* \"contracts/3_Ballot.sol\":1660:1813  function double() public {... */\n      jump\t// out\n        /* \"contracts/3_Ballot.sol\":1819:1943  function halve() public {... */\n    tag_61:\n        /* \"contracts/3_Ballot.sol\":1853:1869  uint256 oldValue */\n      0x00\n        /* \"contracts/3_Ballot.sol\":1872:1877  value */\n      sload(0x00)\n        /* \"contracts/3_Ballot.sol\":1853:1877  uint256 oldValue = value */\n      swap1\n      pop\n        /* \"contracts/3_Ballot.sol\":1896:1897  2 */\n      0x02\n        /* \"contracts/3_Ballot.sol\":1887:1892  value */\n      0x00\n      0x00\n        /* \"contracts/3_Ballot.sol\":1887:1897  value /= 2 */\n      dup3\n      dup3\n      sload\n      tag_113\n      swap2\n      swap1\n      tag_114\n      jump\t// in\n    tag_113:\n      swap3\n      pop\n      pop\n      dup2\n      swap1\n      sstore\n      pop\n        /* \"contracts/3_Ballot.sol\":1907:1936  _logChange(\"halve\", oldValue) */\n      tag_115\n      mload(0x40)\n      dup1\n      0x40\n      add\n      0x40\n      mstore\n      dup1\n      0x05\n      dup2\n      mstore\n      0x20\n      add\n      0x68616c7665000000000000000000000000000000000000000000000000000000\n      dup2\n      mstore\n      pop\n        /* \"contracts/3_Ballot.sol\":1927:1935  oldValue */\n      dup3\n        /* \"contracts/3_Ballot.sol\":1907:1917  _logChange */\n      tag_86\n        /* \"contracts/3_Ballot.sol\":1907:1936  _logChange(\"halve\", oldValue) */\n      jump\t// in\n    tag_115:\n        /* \"contracts/3_Ballot.sol\":1843:1943  {... */\n      pop\n        /* \"contracts/3_Ballot.sol\":1819:1943  function halve() public {... */\n      jump\t// out\n        /* \"contracts/3_Ballot.sol\":151:177  address public lastChanger */\n    tag_64:\n      0x02\n      0x00\n      swap1\n      sload\n      swap1\n      0x0100\n      exp\n      swap1\n      div\n      0xffffffffffffffffffffffffffffffffffffffff\n      and\n      dup2\n      jump\t// out\n        /* \"contracts/3_Ballot.sol\":2109:2312  function getStats()... */\n    tag_69:\n        /* \"contracts/3_Ballot.sol\":2187:2194  uint256 */\n      0x00\n        /* \"contracts/3_Ballot.sol\":2208:2215  uint256 */\n      0x00\n        /* \"contracts/3_Ballot.sol\":2229:2236  address */\n      0x00\n        /* \"contracts/3_Ballot.sol\":2269:2274  value */\n      sload(0x00)\n        /* \"contracts/3_Ballot.sol\":2276:2291  totalOperations */\n      sload(0x01)\n        /* \"contracts/3_Ballot.sol\":2293:2304  lastChanger */\n      0x02\n      0x00\n      swap1\n      sload\n      swap1\n      0x0100\n      exp\n      swap1\n      div\n      0xffffffffffffffffffffffffffffffffffffffff\n      and\n        /* \"contracts/3_Ballot.sol\":2261:2305  return (value, totalOperations, lastChanger) */\n      swap3\n      pop\n      swap3\n      pop\n      swap3\n      pop\n        /* \"contracts/3_Ballot.sol\":2109:2312  function getStats()... */\n      swap1\n      swap2\n      swap3\n      jump\t// out\n        /* \"contracts/3_Ballot.sol\":924:1083  function increment() public {... */\n    tag_74:\n        /* \"contracts/3_Ballot.sol\":962:978  uint256 oldValue */\n      0x00\n        /* \"contracts/3_Ballot.sol\":981:986  value */\n      sload(0x00)\n        /* \"contracts/3_Ballot.sol\":962:986  uint256 oldValue = value */\n      swap1\n      pop\n        /* \"contracts/3_Ballot.sol\":1005:1006  1 */\n      0x01\n        /* \"contracts/3_Ballot.sol\":996:1001  value */\n      0x00\n      0x00\n        /* \"contracts/3_Ballot.sol\":996:1006  value += 1 */\n      dup3\n      dup3\n      sload\n      tag_118\n      swap2\n      swap1\n      tag_84\n      jump\t// in\n    tag_118:\n      swap3\n      pop\n      pop\n      dup2\n      swap1\n      sstore\n      pop\n        /* \"contracts/3_Ballot.sol\":1016:1049  _logChange(\"increment\", oldValue) */\n      tag_119\n      mload(0x40)\n      dup1\n      0x40\n      add\n      0x40\n      mstore\n      dup1\n      0x09\n      dup2\n      mstore\n      0x20\n      add\n      0x696e6372656d656e740000000000000000000000000000000000000000000000\n      dup2\n      mstore\n      pop\n        /* \"contracts/3_Ballot.sol\":1040:1048  oldValue */\n      dup3\n        /* \"contracts/3_Ballot.sol\":1016:1026  _logChange */\n      tag_86\n        /* \"contracts/3_Ballot.sol\":1016:1049  _logChange(\"increment\", oldValue) */\n      jump\t// in\n    tag_119:\n        /* \"contracts/3_Ballot.sol\":1059:1076  _checkMilestone() */\n      tag_120\n        /* \"contracts/3_Ballot.sol\":1059:1074  _checkMilestone */\n      tag_88\n        /* \"contracts/3_Ballot.sol\":1059:1076  _checkMilestone() */\n      jump\t// in\n    tag_120:\n        /* \"contracts/3_Ballot.sol\":952:1083  {... */\n      pop\n        /* \"contracts/3_Ballot.sol\":924:1083  function increment() public {... */\n      jump\t// out\n        /* \"contracts/3_Ballot.sol\":1949:2072  function reset() public {... */\n    tag_77:\n        /* \"contracts/3_Ballot.sol\":1983:1999  uint256 oldValue */\n      0x00\n        /* \"contracts/3_Ballot.sol\":2002:2007  value */\n      sload(0x00)\n        /* \"contracts/3_Ballot.sol\":1983:2007  uint256 oldValue = value */\n      swap1\n      pop\n        /* \"contracts/3_Ballot.sol\":2025:2026  0 */\n      0x00\n        /* \"contracts/3_Ballot.sol\":2017:2022  value */\n      0x00\n        /* \"contracts/3_Ballot.sol\":2017:2026  value = 0 */\n      dup2\n      swap1\n      sstore\n      pop\n        /* \"contracts/3_Ballot.sol\":2036:2065  _logChange(\"reset\", oldValue) */\n      tag_122\n      mload(0x40)\n      dup1\n      0x40\n      add\n      0x40\n      mstore\n      dup1\n      0x05\n      dup2\n      mstore\n      0x20\n      add\n      0x7265736574000000000000000000000000000000000000000000000000000000\n      dup2\n      mstore\n      pop\n        /* \"contracts/3_Ballot.sol\":2056:2064  oldValue */\n      dup3\n        /* \"contracts/3_Ballot.sol\":2036:2046  _logChange */\n      tag_86\n        /* \"contracts/3_Ballot.sol\":2036:2065  _logChange(\"reset\", oldValue) */\n      jump\t// in\n    tag_122:\n        /* \"contracts/3_Ballot.sol\":1973:2072  {... */\n      pop\n        /* \"contracts/3_Ballot.sol\":1949:2072  function reset() public {... */\n      jump\t// out\n        /* \"contracts/3_Ballot.sol\":115:145  uint256 public totalOperations */\n    tag_80:\n      sload(0x01)\n      dup2\n      jump\t// out\n        /* \"contracts/3_Ballot.sol\":2466:2718  function _logChange(string memory operation, uint256 oldValue) internal {... */\n    tag_86:\n        /* \"contracts/3_Ballot.sol\":2567:2568  1 */\n      0x01\n        /* \"contracts/3_Ballot.sol\":2548:2563  totalOperations */\n      dup1\n      0x00\n        /* \"contracts/3_Ballot.sol\":2548:2568  totalOperations += 1 */\n      dup3\n      dup3\n      sload\n      tag_124\n      swap2\n      swap1\n      tag_84\n      jump\t// in\n    tag_124:\n      swap3\n      pop\n      pop\n      dup2\n      swap1\n      sstore\n      pop\n        /* \"contracts/3_Ballot.sol\":2608:2609  1 */\n      0x01\n        /* \"contracts/3_Ballot.sol\":2578:2592  userOperations */\n      0x03\n        /* \"contracts/3_Ballot.sol\":2578:2604  userOperations[msg.sender] */\n      0x00\n        /* \"contracts/3_Ballot.sol\":2593:2603  msg.sender */\n      caller\n        /* \"contracts/3_Ballot.sol\":2578:2604  userOperations[msg.sender] */\n      0xffffffffffffffffffffffffffffffffffffffff\n      and\n      0xffffffffffffffffffffffffffffffffffffffff\n      and\n      dup2\n      mstore\n      0x20\n      add\n      swap1\n      dup2\n      mstore\n      0x20\n      add\n      0x00\n      keccak256\n      0x00\n        /* \"contracts/3_Ballot.sol\":2578:2609  userOperations[msg.sender] += 1 */\n      dup3\n      dup3\n      sload\n      tag_125\n      swap2\n      swap1\n      tag_84\n      jump\t// in\n    tag_125:\n      swap3\n      pop\n      pop\n      dup2\n      swap1\n      sstore\n      pop\n        /* \"contracts/3_Ballot.sol\":2633:2643  msg.sender */\n      caller\n        /* \"contracts/3_Ballot.sol\":2619:2630  lastChanger */\n      0x02\n      0x00\n        /* \"contracts/3_Ballot.sol\":2619:2643  lastChanger = msg.sender */\n      0x0100\n      exp\n      dup2\n      sload\n      dup2\n      0xffffffffffffffffffffffffffffffffffffffff\n      mul\n      not\n      and\n      swap1\n      dup4\n      0xffffffffffffffffffffffffffffffffffffffff\n      and\n      mul\n      or\n      swap1\n      sstore\n      pop\n        /* \"contracts/3_Ballot.sol\":2691:2699  oldValue */\n      dup1\n        /* \"contracts/3_Ballot.sol\":2684:2689  value */\n      sload(0x00)\n        /* \"contracts/3_Ballot.sol\":2672:2682  msg.sender */\n      caller\n        /* \"contracts/3_Ballot.sol\":2659:2711  ValueChanged(msg.sender, value, oldValue, operation) */\n      0xffffffffffffffffffffffffffffffffffffffff\n      and\n      0x185b9e2dada2f4b94ffeccf47bed30bfc83c4905a1d6dbad66a5c56b69f9789c\n        /* \"contracts/3_Ballot.sol\":2701:2710  operation */\n      dup6\n        /* \"contracts/3_Ballot.sol\":2659:2711  ValueChanged(msg.sender, value, oldValue, operation) */\n      mload(0x40)\n      tag_126\n      swap2\n      swap1\n      tag_127\n      jump\t// in\n    tag_126:\n      mload(0x40)\n      dup1\n      swap2\n      sub\n      swap1\n      log4\n        /* \"contracts/3_Ballot.sol\":2466:2718  function _logChange(string memory operation, uint256 oldValue) internal {... */\n      pop\n      pop\n      jump\t// out\n        /* \"contracts/3_Ballot.sol\":2724:2898  function _checkMilestone() internal {... */\n    tag_88:\n        /* \"contracts/3_Ballot.sol\":2788:2789  0 */\n      0x00\n        /* \"contracts/3_Ballot.sol\":2782:2784  10 */\n      0x0a\n        /* \"contracts/3_Ballot.sol\":2774:2779  value */\n      sload(0x00)\n        /* \"contracts/3_Ballot.sol\":2774:2784  value % 10 */\n      tag_129\n      swap2\n      swap1\n      tag_130\n      jump\t// in\n    tag_129:\n        /* \"contracts/3_Ballot.sol\":2774:2789  value % 10 == 0 */\n      eq\n        /* \"contracts/3_Ballot.sol\":2774:2803  value % 10 == 0 && value != 0 */\n      dup1\n      iszero\n      tag_131\n      jumpi\n      pop\n        /* \"contracts/3_Ballot.sol\":2802:2803  0 */\n      0x00\n        /* \"contracts/3_Ballot.sol\":2793:2798  value */\n      sload(0x00)\n        /* \"contracts/3_Ballot.sol\":2793:2803  value != 0 */\n      eq\n      iszero\n        /* \"contracts/3_Ballot.sol\":2774:2803  value % 10 == 0 && value != 0 */\n    tag_131:\n        /* \"contracts/3_Ballot.sol\":2770:2892  if (value % 10 == 0 && value != 0) {... */\n      iszero\n      tag_132\n      jumpi\n        /* \"contracts/3_Ballot.sol\":2841:2851  msg.sender */\n      caller\n        /* \"contracts/3_Ballot.sol\":2824:2881  Milestone(value, msg.sender, \"Reached a multiple of 10!\") */\n      0xffffffffffffffffffffffffffffffffffffffff\n      and\n        /* \"contracts/3_Ballot.sol\":2834:2839  value */\n      sload(0x00)\n        /* \"contracts/3_Ballot.sol\":2824:2881  Milestone(value, msg.sender, \"Reached a multiple of 10!\") */\n      0xf4afe5414fc2845d7c08deba18b72f6792e6fdb0867f4fcefd8b6a451a152098\n      mload(0x40)\n      tag_133\n      swap1\n      tag_134\n      jump\t// in\n    tag_133:\n      mload(0x40)\n      dup1\n      swap2\n      sub\n      swap1\n      log3\n        /* \"contracts/3_Ballot.sol\":2770:2892  if (value % 10 == 0 && value != 0) {... */\n    tag_132:\n        /* \"contracts/3_Ballot.sol\":2724:2898  function _checkMilestone() internal {... */\n      jump\t// out\n        /* \"#utility.yul\":88:205   */\n    tag_136:\n        /* \"#utility.yul\":197:198   */\n      0x00\n        /* \"#utility.yul\":194:195   */\n      0x00\n        /* \"#utility.yul\":187:199   */\n      revert\n        /* \"#utility.yul\":334:411   */\n    tag_138:\n        /* \"#utility.yul\":371:378   */\n      0x00\n        /* \"#utility.yul\":400:405   */\n      dup2\n        /* \"#utility.yul\":389:405   */\n      swap1\n      pop\n        /* \"#utility.yul\":334:411   */\n      swap2\n      swap1\n      pop\n      jump\t// out\n        /* \"#utility.yul\":417:539   */\n    tag_139:\n        /* \"#utility.yul\":490:514   */\n      tag_166\n        /* \"#utility.yul\":508:513   */\n      dup2\n        /* \"#utility.yul\":490:514   */\n      tag_138\n      jump\t// in\n    tag_166:\n        /* \"#utility.yul\":483:488   */\n      dup2\n        /* \"#utility.yul\":480:515   */\n      eq\n        /* \"#utility.yul\":470:533   */\n      tag_167\n      jumpi\n        /* \"#utility.yul\":529:530   */\n      0x00\n        /* \"#utility.yul\":526:527   */\n      0x00\n        /* \"#utility.yul\":519:531   */\n      revert\n        /* \"#utility.yul\":470:533   */\n    tag_167:\n        /* \"#utility.yul\":417:539   */\n      pop\n      jump\t// out\n        /* \"#utility.yul\":545:684   */\n    tag_140:\n        /* \"#utility.yul\":591:596   */\n      0x00\n        /* \"#utility.yul\":629:635   */\n      dup2\n        /* \"#utility.yul\":616:636   */\n      calldataload\n        /* \"#utility.yul\":607:636   */\n      swap1\n      pop\n        /* \"#utility.yul\":645:678   */\n      tag_169\n        /* \"#utility.yul\":672:677   */\n      dup2\n        /* \"#utility.yul\":645:678   */\n      tag_139\n      jump\t// in\n    tag_169:\n        /* \"#utility.yul\":545:684   */\n      swap3\n      swap2\n      pop\n      pop\n      jump\t// out\n        /* \"#utility.yul\":690:1019   */\n    tag_27:\n        /* \"#utility.yul\":749:755   */\n      0x00\n        /* \"#utility.yul\":798:800   */\n      0x20\n        /* \"#utility.yul\":786:795   */\n      dup3\n        /* \"#utility.yul\":777:784   */\n      dup5\n        /* \"#utility.yul\":773:796   */\n      sub\n        /* \"#utility.yul\":769:801   */\n      slt\n        /* \"#utility.yul\":766:885   */\n      iszero\n      tag_171\n      jumpi\n        /* \"#utility.yul\":804:883   */\n      tag_172\n      tag_136\n      jump\t// in\n    tag_172:\n        /* \"#utility.yul\":766:885   */\n    tag_171:\n        /* \"#utility.yul\":924:925   */\n      0x00\n        /* \"#utility.yul\":949:1002   */\n      tag_173\n        /* \"#utility.yul\":994:1001   */\n      dup5\n        /* \"#utility.yul\":985:991   */\n      dup3\n        /* \"#utility.yul\":974:983   */\n      dup6\n        /* \"#utility.yul\":970:992   */\n      add\n        /* \"#utility.yul\":949:1002   */\n      tag_140\n      jump\t// in\n    tag_173:\n        /* \"#utility.yul\":939:1002   */\n      swap2\n      pop\n        /* \"#utility.yul\":895:1012   */\n      pop\n        /* \"#utility.yul\":690:1019   */\n      swap3\n      swap2\n      pop\n      pop\n      jump\t// out\n        /* \"#utility.yul\":1025:1151   */\n    tag_141:\n        /* \"#utility.yul\":1062:1069   */\n      0x00\n        /* \"#utility.yul\":1102:1144   */\n      0xffffffffffffffffffffffffffffffffffffffff\n        /* \"#utility.yul\":1095:1100   */\n      dup3\n        /* \"#utility.yul\":1091:1145   */\n      and\n        /* \"#utility.yul\":1080:1145   */\n      swap1\n      pop\n        /* \"#utility.yul\":1025:1151   */\n      swap2\n      swap1\n      pop\n      jump\t// out\n        /* \"#utility.yul\":1157:1253   */\n    tag_142:\n        /* \"#utility.yul\":1194:1201   */\n      0x00\n        /* \"#utility.yul\":1223:1247   */\n      tag_176\n        /* \"#utility.yul\":1241:1246   */\n      dup3\n        /* \"#utility.yul\":1223:1247   */\n      tag_141\n      jump\t// in\n    tag_176:\n        /* \"#utility.yul\":1212:1247   */\n      swap1\n      pop\n        /* \"#utility.yul\":1157:1253   */\n      swap2\n      swap1\n      pop\n      jump\t// out\n        /* \"#utility.yul\":1259:1381   */\n    tag_143:\n        /* \"#utility.yul\":1332:1356   */\n      tag_178\n        /* \"#utility.yul\":1350:1355   */\n      dup2\n        /* \"#utility.yul\":1332:1356   */\n      tag_142\n      jump\t// in\n    tag_178:\n        /* \"#utility.yul\":1325:1330   */\n      dup2\n        /* \"#utility.yul\":1322:1357   */\n      eq\n        /* \"#utility.yul\":1312:1375   */\n      tag_179\n      jumpi\n        /* \"#utility.yul\":1371:1372   */\n      0x00\n        /* \"#utility.yul\":1368:1369   */\n      0x00\n        /* \"#utility.yul\":1361:1373   */\n      revert\n        /* \"#utility.yul\":1312:1375   */\n    tag_179:\n        /* \"#utility.yul\":1259:1381   */\n      pop\n      jump\t// out\n        /* \"#utility.yul\":1387:1526   */\n    tag_144:\n        /* \"#utility.yul\":1433:1438   */\n      0x00\n        /* \"#utility.yul\":1471:1477   */\n      dup2\n        /* \"#utility.yul\":1458:1478   */\n      calldataload\n        /* \"#utility.yul\":1449:1478   */\n      swap1\n      pop\n        /* \"#utility.yul\":1487:1520   */\n      tag_181\n        /* \"#utility.yul\":1514:1519   */\n      dup2\n        /* \"#utility.yul\":1487:1520   */\n      tag_143\n      jump\t// in\n    tag_181:\n        /* \"#utility.yul\":1387:1526   */\n      swap3\n      swap2\n      pop\n      pop\n      jump\t// out\n        /* \"#utility.yul\":1532:1861   */\n    tag_39:\n        /* \"#utility.yul\":1591:1597   */\n      0x00\n        /* \"#utility.yul\":1640:1642   */\n      0x20\n        /* \"#utility.yul\":1628:1637   */\n      dup3\n        /* \"#utility.yul\":1619:1626   */\n      dup5\n        /* \"#utility.yul\":1615:1638   */\n      sub\n        /* \"#utility.yul\":1611:1643   */\n      slt\n        /* \"#utility.yul\":1608:1727   */\n      iszero\n      tag_183\n      jumpi\n        /* \"#utility.yul\":1646:1725   */\n      tag_184\n      tag_136\n      jump\t// in\n    tag_184:\n        /* \"#utility.yul\":1608:1727   */\n    tag_183:\n        /* \"#utility.yul\":1766:1767   */\n      0x00\n        /* \"#utility.yul\":1791:1844   */\n      tag_185\n        /* \"#utility.yul\":1836:1843   */\n      dup5\n        /* \"#utility.yul\":1827:1833   */\n      dup3\n        /* \"#utility.yul\":1816:1825   */\n      dup6\n        /* \"#utility.yul\":1812:1834   */\n      add\n        /* \"#utility.yul\":1791:1844   */\n      tag_144\n      jump\t// in\n    tag_185:\n        /* \"#utility.yul\":1781:1844   */\n      swap2\n      pop\n        /* \"#utility.yul\":1737:1854   */\n      pop\n        /* \"#utility.yul\":1532:1861   */\n      swap3\n      swap2\n      pop\n      pop\n      jump\t// out\n        /* \"#utility.yul\":1867:1985   */\n    tag_145:\n        /* \"#utility.yul\":1954:1978   */\n      tag_187\n        /* \"#utility.yul\":1972:1977   */\n      dup2\n        /* \"#utility.yul\":1954:1978   */\n      tag_138\n      jump\t// in\n    tag_187:\n        /* \"#utility.yul\":1949:1952   */\n      dup3\n        /* \"#utility.yul\":1942:1979   */\n      mstore\n        /* \"#utility.yul\":1867:1985   */\n      pop\n      pop\n      jump\t// out\n        /* \"#utility.yul\":1991:2213   */\n    tag_42:\n        /* \"#utility.yul\":2084:2088   */\n      0x00\n        /* \"#utility.yul\":2122:2124   */\n      0x20\n        /* \"#utility.yul\":2111:2120   */\n      dup3\n        /* \"#utility.yul\":2107:2125   */\n      add\n        /* \"#utility.yul\":2099:2125   */\n      swap1\n      pop\n        /* \"#utility.yul\":2135:2206   */\n      tag_189\n        /* \"#utility.yul\":2203:2204   */\n      0x00\n        /* \"#utility.yul\":2192:2201   */\n      dup4\n        /* \"#utility.yul\":2188:2205   */\n      add\n        /* \"#utility.yul\":2179:2185   */\n      dup5\n        /* \"#utility.yul\":2135:2206   */\n      tag_145\n      jump\t// in\n    tag_189:\n        /* \"#utility.yul\":1991:2213   */\n      swap3\n      swap2\n      pop\n      pop\n      jump\t// out\n        /* \"#utility.yul\":2219:2337   */\n    tag_146:\n        /* \"#utility.yul\":2306:2330   */\n      tag_191\n        /* \"#utility.yul\":2324:2329   */\n      dup2\n        /* \"#utility.yul\":2306:2330   */\n      tag_142\n      jump\t// in\n    tag_191:\n        /* \"#utility.yul\":2301:2304   */\n      dup3\n        /* \"#utility.yul\":2294:2331   */\n      mstore\n        /* \"#utility.yul\":2219:2337   */\n      pop\n      pop\n      jump\t// out\n        /* \"#utility.yul\":2343:2565   */\n    tag_66:\n        /* \"#utility.yul\":2436:2440   */\n      0x00\n        /* \"#utility.yul\":2474:2476   */\n      0x20\n        /* \"#utility.yul\":2463:2472   */\n      dup3\n        /* \"#utility.yul\":2459:2477   */\n      add\n        /* \"#utility.yul\":2451:2477   */\n      swap1\n      pop\n        /* \"#utility.yul\":2487:2558   */\n      tag_193\n        /* \"#utility.yul\":2555:2556   */\n      0x00\n        /* \"#utility.yul\":2544:2553   */\n      dup4\n        /* \"#utility.yul\":2540:2557   */\n      add\n        /* \"#utility.yul\":2531:2537   */\n      dup5\n        /* \"#utility.yul\":2487:2558   */\n      tag_146\n      jump\t// in\n    tag_193:\n        /* \"#utility.yul\":2343:2565   */\n      swap3\n      swap2\n      pop\n      pop\n      jump\t// out\n        /* \"#utility.yul\":2571:3013   */\n    tag_71:\n        /* \"#utility.yul\":2720:2724   */\n      0x00\n        /* \"#utility.yul\":2758:2760   */\n      0x60\n        /* \"#utility.yul\":2747:2756   */\n      dup3\n        /* \"#utility.yul\":2743:2761   */\n      add\n        /* \"#utility.yul\":2735:2761   */\n      swap1\n      pop\n        /* \"#utility.yul\":2771:2842   */\n      tag_195\n        /* \"#utility.yul\":2839:2840   */\n      0x00\n        /* \"#utility.yul\":2828:2837   */\n      dup4\n        /* \"#utility.yul\":2824:2841   */\n      add\n        /* \"#utility.yul\":2815:2821   */\n      dup7\n        /* \"#utility.yul\":2771:2842   */\n      tag_145\n      jump\t// in\n    tag_195:\n        /* \"#utility.yul\":2852:2924   */\n      tag_196\n        /* \"#utility.yul\":2920:2922   */\n      0x20\n        /* \"#utility.yul\":2909:2918   */\n      dup4\n        /* \"#utility.yul\":2905:2923   */\n      add\n        /* \"#utility.yul\":2896:2902   */\n      dup6\n        /* \"#utility.yul\":2852:2924   */\n      tag_145\n      jump\t// in\n    tag_196:\n        /* \"#utility.yul\":2934:3006   */\n      tag_197\n        /* \"#utility.yul\":3002:3004   */\n      0x40\n        /* \"#utility.yul\":2991:3000   */\n      dup4\n        /* \"#utility.yul\":2987:3005   */\n      add\n        /* \"#utility.yul\":2978:2984   */\n      dup5\n        /* \"#utility.yul\":2934:3006   */\n      tag_146\n      jump\t// in\n    tag_197:\n        /* \"#utility.yul\":2571:3013   */\n      swap5\n      swap4\n      pop\n      pop\n      pop\n      pop\n      jump\t// out\n        /* \"#utility.yul\":3019:3199   */\n    tag_147:\n        /* \"#utility.yul\":3067:3144   */\n      0x4e487b7100000000000000000000000000000000000000000000000000000000\n        /* \"#utility.yul\":3064:3065   */\n      0x00\n        /* \"#utility.yul\":3057:3145   */\n      mstore\n        /* \"#utility.yul\":3164:3168   */\n      0x11\n        /* \"#utility.yul\":3161:3162   */\n      0x04\n        /* \"#utility.yul\":3154:3169   */\n      mstore\n        /* \"#utility.yul\":3188:3192   */\n      0x24\n        /* \"#utility.yul\":3185:3186   */\n      0x00\n        /* \"#utility.yul\":3178:3193   */\n      revert\n        /* \"#utility.yul\":3205:3396   */\n    tag_84:\n        /* \"#utility.yul\":3245:3248   */\n      0x00\n        /* \"#utility.yul\":3264:3284   */\n      tag_200\n        /* \"#utility.yul\":3282:3283   */\n      dup3\n        /* \"#utility.yul\":3264:3284   */\n      tag_138\n      jump\t// in\n    tag_200:\n        /* \"#utility.yul\":3259:3284   */\n      swap2\n      pop\n        /* \"#utility.yul\":3298:3318   */\n      tag_201\n        /* \"#utility.yul\":3316:3317   */\n      dup4\n        /* \"#utility.yul\":3298:3318   */\n      tag_138\n      jump\t// in\n    tag_201:\n        /* \"#utility.yul\":3293:3318   */\n      swap3\n      pop\n        /* \"#utility.yul\":3341:3342   */\n      dup3\n        /* \"#utility.yul\":3338:3339   */\n      dup3\n        /* \"#utility.yul\":3334:3343   */\n      add\n        /* \"#utility.yul\":3327:3343   */\n      swap1\n      pop\n        /* \"#utility.yul\":3362:3365   */\n      dup1\n        /* \"#utility.yul\":3359:3360   */\n      dup3\n        /* \"#utility.yul\":3356:3366   */\n      gt\n        /* \"#utility.yul\":3353:3389   */\n      iszero\n      tag_202\n      jumpi\n        /* \"#utility.yul\":3369:3387   */\n      tag_203\n      tag_147\n      jump\t// in\n    tag_203:\n        /* \"#utility.yul\":3353:3389   */\n    tag_202:\n        /* \"#utility.yul\":3205:3396   */\n      swap3\n      swap2\n      pop\n      pop\n      jump\t// out\n        /* \"#utility.yul\":3402:3571   */\n    tag_148:\n        /* \"#utility.yul\":3486:3497   */\n      0x00\n        /* \"#utility.yul\":3520:3526   */\n      dup3\n        /* \"#utility.yul\":3515:3518   */\n      dup3\n        /* \"#utility.yul\":3508:3527   */\n      mstore\n        /* \"#utility.yul\":3560:3564   */\n      0x20\n        /* \"#utility.yul\":3555:3558   */\n      dup3\n        /* \"#utility.yul\":3551:3565   */\n      add\n        /* \"#utility.yul\":3536:3565   */\n      swap1\n      pop\n        /* \"#utility.yul\":3402:3571   */\n      swap3\n      swap2\n      pop\n      pop\n      jump\t// out\n        /* \"#utility.yul\":3577:3736   */\n    tag_149:\n        /* \"#utility.yul\":3717:3728   */\n      0x556e646572666c6f770000000000000000000000000000000000000000000000\n        /* \"#utility.yul\":3713:3714   */\n      0x00\n        /* \"#utility.yul\":3705:3711   */\n      dup3\n        /* \"#utility.yul\":3701:3715   */\n      add\n        /* \"#utility.yul\":3694:3729   */\n      mstore\n        /* \"#utility.yul\":3577:3736   */\n      pop\n      jump\t// out\n        /* \"#utility.yul\":3742:4107   */\n    tag_150:\n        /* \"#utility.yul\":3884:3887   */\n      0x00\n        /* \"#utility.yul\":3905:3971   */\n      tag_207\n        /* \"#utility.yul\":3969:3970   */\n      0x09\n        /* \"#utility.yul\":3964:3967   */\n      dup4\n        /* \"#utility.yul\":3905:3971   */\n      tag_148\n      jump\t// in\n    tag_207:\n        /* \"#utility.yul\":3898:3971   */\n      swap2\n      pop\n        /* \"#utility.yul\":3980:4073   */\n      tag_208\n        /* \"#utility.yul\":4069:4072   */\n      dup3\n        /* \"#utility.yul\":3980:4073   */\n      tag_149\n      jump\t// in\n    tag_208:\n        /* \"#utility.yul\":4098:4100   */\n      0x20\n        /* \"#utility.yul\":4093:4096   */\n      dup3\n        /* \"#utility.yul\":4089:4101   */\n      add\n        /* \"#utility.yul\":4082:4101   */\n      swap1\n      pop\n        /* \"#utility.yul\":3742:4107   */\n      swap2\n      swap1\n      pop\n      jump\t// out\n        /* \"#utility.yul\":4113:4532   */\n    tag_92:\n        /* \"#utility.yul\":4279:4283   */\n      0x00\n        /* \"#utility.yul\":4317:4319   */\n      0x20\n        /* \"#utility.yul\":4306:4315   */\n      dup3\n        /* \"#utility.yul\":4302:4320   */\n      add\n        /* \"#utility.yul\":4294:4320   */\n      swap1\n      pop\n        /* \"#utility.yul\":4366:4375   */\n      dup2\n        /* \"#utility.yul\":4360:4364   */\n      dup2\n        /* \"#utility.yul\":4356:4376   */\n      sub\n        /* \"#utility.yul\":4352:4353   */\n      0x00\n        /* \"#utility.yul\":4341:4350   */\n      dup4\n        /* \"#utility.yul\":4337:4354   */\n      add\n        /* \"#utility.yul\":4330:4377   */\n      mstore\n        /* \"#utility.yul\":4394:4525   */\n      tag_210\n        /* \"#utility.yul\":4520:4524   */\n      dup2\n        /* \"#utility.yul\":4394:4525   */\n      tag_150\n      jump\t// in\n    tag_210:\n        /* \"#utility.yul\":4386:4525   */\n      swap1\n      pop\n        /* \"#utility.yul\":4113:4532   */\n      swap2\n      swap1\n      pop\n      jump\t// out\n        /* \"#utility.yul\":4538:4732   */\n    tag_94:\n        /* \"#utility.yul\":4578:4582   */\n      0x00\n        /* \"#utility.yul\":4598:4618   */\n      tag_212\n        /* \"#utility.yul\":4616:4617   */\n      dup3\n        /* \"#utility.yul\":4598:4618   */\n      tag_138\n      jump\t// in\n    tag_212:\n        /* \"#utility.yul\":4593:4618   */\n      swap2\n      pop\n        /* \"#utility.yul\":4632:4652   */\n      tag_213\n        /* \"#utility.yul\":4650:4651   */\n      dup4\n        /* \"#utility.yul\":4632:4652   */\n      tag_138\n      jump\t// in\n    tag_213:\n        /* \"#utility.yul\":4627:4652   */\n      swap3\n      pop\n        /* \"#utility.yul\":4676:4677   */\n      dup3\n        /* \"#utility.yul\":4673:4674   */\n      dup3\n        /* \"#utility.yul\":4669:4678   */\n      sub\n        /* \"#utility.yul\":4661:4678   */\n      swap1\n      pop\n        /* \"#utility.yul\":4700:4701   */\n      dup2\n        /* \"#utility.yul\":4694:4698   */\n      dup2\n        /* \"#utility.yul\":4691:4702   */\n      gt\n        /* \"#utility.yul\":4688:4725   */\n      iszero\n      tag_214\n      jumpi\n        /* \"#utility.yul\":4705:4723   */\n      tag_215\n      tag_147\n      jump\t// in\n    tag_215:\n        /* \"#utility.yul\":4688:4725   */\n    tag_214:\n        /* \"#utility.yul\":4538:4732   */\n      swap3\n      swap2\n      pop\n      pop\n      jump\t// out\n        /* \"#utility.yul\":4738:4915   */\n    tag_151:\n        /* \"#utility.yul\":4878:4907   */\n      0x43616e6e6f742064656372656d656e742062656c6f77207a65726f0000000000\n        /* \"#utility.yul\":4874:4875   */\n      0x00\n        /* \"#utility.yul\":4866:4872   */\n      dup3\n        /* \"#utility.yul\":4862:4876   */\n      add\n        /* \"#utility.yul\":4855:4908   */\n      mstore\n        /* \"#utility.yul\":4738:4915   */\n      pop\n      jump\t// out\n        /* \"#utility.yul\":4921:5287   */\n    tag_152:\n        /* \"#utility.yul\":5063:5066   */\n      0x00\n        /* \"#utility.yul\":5084:5151   */\n      tag_218\n        /* \"#utility.yul\":5148:5150   */\n      0x1b\n        /* \"#utility.yul\":5143:5146   */\n      dup4\n        /* \"#utility.yul\":5084:5151   */\n      tag_148\n      jump\t// in\n    tag_218:\n        /* \"#utility.yul\":5077:5151   */\n      swap2\n      pop\n        /* \"#utility.yul\":5160:5253   */\n      tag_219\n        /* \"#utility.yul\":5249:5252   */\n      dup3\n        /* \"#utility.yul\":5160:5253   */\n      tag_151\n      jump\t// in\n    tag_219:\n        /* \"#utility.yul\":5278:5280   */\n      0x20\n        /* \"#utility.yul\":5273:5276   */\n      dup3\n        /* \"#utility.yul\":5269:5281   */\n      add\n        /* \"#utility.yul\":5262:5281   */\n      swap1\n      pop\n        /* \"#utility.yul\":4921:5287   */\n      swap2\n      swap1\n      pop\n      jump\t// out\n        /* \"#utility.yul\":5293:5712   */\n    tag_99:\n        /* \"#utility.yul\":5459:5463   */\n      0x00\n        /* \"#utility.yul\":5497:5499   */\n      0x20\n        /* \"#utility.yul\":5486:5495   */\n      dup3\n        /* \"#utility.yul\":5482:5500   */\n      add\n        /* \"#utility.yul\":5474:5500   */\n      swap1\n      pop\n        /* \"#utility.yul\":5546:5555   */\n      dup2\n        /* \"#utility.yul\":5540:5544   */\n      dup2\n        /* \"#utility.yul\":5536:5556   */\n      sub\n        /* \"#utility.yul\":5532:5533   */\n      0x00\n        /* \"#utility.yul\":5521:5530   */\n      dup4\n        /* \"#utility.yul\":5517:5534   */\n      add\n        /* \"#utility.yul\":5510:5557   */\n      mstore\n        /* \"#utility.yul\":5574:5705   */\n      tag_221\n        /* \"#utility.yul\":5700:5704   */\n      dup2\n        /* \"#utility.yul\":5574:5705   */\n      tag_152\n      jump\t// in\n    tag_221:\n        /* \"#utility.yul\":5566:5705   */\n      swap1\n      pop\n        /* \"#utility.yul\":5293:5712   */\n      swap2\n      swap1\n      pop\n      jump\t// out\n        /* \"#utility.yul\":5718:6128   */\n    tag_109:\n        /* \"#utility.yul\":5758:5765   */\n      0x00\n        /* \"#utility.yul\":5781:5801   */\n      tag_223\n        /* \"#utility.yul\":5799:5800   */\n      dup3\n        /* \"#utility.yul\":5781:5801   */\n      tag_138\n      jump\t// in\n    tag_223:\n        /* \"#utility.yul\":5776:5801   */\n      swap2\n      pop\n        /* \"#utility.yul\":5815:5835   */\n      tag_224\n        /* \"#utility.yul\":5833:5834   */\n      dup4\n        /* \"#utility.yul\":5815:5835   */\n      tag_138\n      jump\t// in\n    tag_224:\n        /* \"#utility.yul\":5810:5835   */\n      swap3\n      pop\n        /* \"#utility.yul\":5870:5871   */\n      dup3\n        /* \"#utility.yul\":5867:5868   */\n      dup3\n        /* \"#utility.yul\":5863:5872   */\n      mul\n        /* \"#utility.yul\":5892:5922   */\n      tag_225\n        /* \"#utility.yul\":5910:5921   */\n      dup2\n        /* \"#utility.yul\":5892:5922   */\n      tag_138\n      jump\t// in\n    tag_225:\n        /* \"#utility.yul\":5881:5922   */\n      swap2\n      pop\n        /* \"#utility.yul\":6071:6072   */\n      dup3\n        /* \"#utility.yul\":6062:6069   */\n      dup3\n        /* \"#utility.yul\":6058:6073   */\n      div\n        /* \"#utility.yul\":6055:6056   */\n      dup5\n        /* \"#utility.yul\":6052:6074   */\n      eq\n        /* \"#utility.yul\":6032:6033   */\n      dup4\n        /* \"#utility.yul\":6025:6034   */\n      iszero\n        /* \"#utility.yul\":6005:6088   */\n      or\n        /* \"#utility.yul\":5982:6121   */\n      tag_226\n      jumpi\n        /* \"#utility.yul\":6101:6119   */\n      tag_227\n      tag_147\n      jump\t// in\n    tag_227:\n        /* \"#utility.yul\":5982:6121   */\n    tag_226:\n        /* \"#utility.yul\":5766:6128   */\n      pop\n        /* \"#utility.yul\":5718:6128   */\n      swap3\n      swap2\n      pop\n      pop\n      jump\t// out\n        /* \"#utility.yul\":6134:6314   */\n    tag_153:\n        /* \"#utility.yul\":6182:6259   */\n      0x4e487b7100000000000000000000000000000000000000000000000000000000\n        /* \"#utility.yul\":6179:6180   */\n      0x00\n        /* \"#utility.yul\":6172:6260   */\n      mstore\n        /* \"#utility.yul\":6279:6283   */\n      0x12\n        /* \"#utility.yul\":6276:6277   */\n      0x04\n        /* \"#utility.yul\":6269:6284   */\n      mstore\n        /* \"#utility.yul\":6303:6307   */\n      0x24\n        /* \"#utility.yul\":6300:6301   */\n      0x00\n        /* \"#utility.yul\":6293:6308   */\n      revert\n        /* \"#utility.yul\":6320:6505   */\n    tag_114:\n        /* \"#utility.yul\":6360:6361   */\n      0x00\n        /* \"#utility.yul\":6377:6397   */\n      tag_230\n        /* \"#utility.yul\":6395:6396   */\n      dup3\n        /* \"#utility.yul\":6377:6397   */\n      tag_138\n      jump\t// in\n    tag_230:\n        /* \"#utility.yul\":6372:6397   */\n      swap2\n      pop\n        /* \"#utility.yul\":6411:6431   */\n      tag_231\n        /* \"#utility.yul\":6429:6430   */\n      dup4\n        /* \"#utility.yul\":6411:6431   */\n      tag_138\n      jump\t// in\n    tag_231:\n        /* \"#utility.yul\":6406:6431   */\n      swap3\n      pop\n        /* \"#utility.yul\":6450:6451   */\n      dup3\n        /* \"#utility.yul\":6440:6475   */\n      tag_232\n      jumpi\n        /* \"#utility.yul\":6455:6473   */\n      tag_233\n      tag_153\n      jump\t// in\n    tag_233:\n        /* \"#utility.yul\":6440:6475   */\n    tag_232:\n        /* \"#utility.yul\":6497:6498   */\n      dup3\n        /* \"#utility.yul\":6494:6495   */\n      dup3\n        /* \"#utility.yul\":6490:6499   */\n      div\n        /* \"#utility.yul\":6485:6499   */\n      swap1\n      pop\n        /* \"#utility.yul\":6320:6505   */\n      swap3\n      swap2\n      pop\n      pop\n      jump\t// out\n        /* \"#utility.yul\":6511:6610   */\n    tag_154:\n        /* \"#utility.yul\":6563:6569   */\n      0x00\n        /* \"#utility.yul\":6597:6602   */\n      dup2\n        /* \"#utility.yul\":6591:6603   */\n      mload\n        /* \"#utility.yul\":6581:6603   */\n      swap1\n      pop\n        /* \"#utility.yul\":6511:6610   */\n      swap2\n      swap1\n      pop\n      jump\t// out\n        /* \"#utility.yul\":6616:6755   */\n    tag_155:\n        /* \"#utility.yul\":6705:6711   */\n      dup3\n        /* \"#utility.yul\":6700:6703   */\n      dup2\n        /* \"#utility.yul\":6695:6698   */\n      dup4\n        /* \"#utility.yul\":6689:6712   */\n      mcopy\n        /* \"#utility.yul\":6746:6747   */\n      0x00\n        /* \"#utility.yul\":6737:6743   */\n      dup4\n        /* \"#utility.yul\":6732:6735   */\n      dup4\n        /* \"#utility.yul\":6728:6744   */\n      add\n        /* \"#utility.yul\":6721:6748   */\n      mstore\n        /* \"#utility.yul\":6616:6755   */\n      pop\n      pop\n      pop\n      jump\t// out\n        /* \"#utility.yul\":6761:6863   */\n    tag_156:\n        /* \"#utility.yul\":6802:6808   */\n      0x00\n        /* \"#utility.yul\":6853:6855   */\n      0x1f\n        /* \"#utility.yul\":6849:6856   */\n      not\n        /* \"#utility.yul\":6844:6846   */\n      0x1f\n        /* \"#utility.yul\":6837:6842   */\n      dup4\n        /* \"#utility.yul\":6833:6847   */\n      add\n        /* \"#utility.yul\":6829:6857   */\n      and\n        /* \"#utility.yul\":6819:6857   */\n      swap1\n      pop\n        /* \"#utility.yul\":6761:6863   */\n      swap2\n      swap1\n      pop\n      jump\t// out\n        /* \"#utility.yul\":6869:7246   */\n    tag_157:\n        /* \"#utility.yul\":6957:6960   */\n      0x00\n        /* \"#utility.yul\":6985:7024   */\n      tag_238\n        /* \"#utility.yul\":7018:7023   */\n      dup3\n        /* \"#utility.yul\":6985:7024   */\n      tag_154\n      jump\t// in\n    tag_238:\n        /* \"#utility.yul\":7040:7111   */\n      tag_239\n        /* \"#utility.yul\":7104:7110   */\n      dup2\n        /* \"#utility.yul\":7099:7102   */\n      dup6\n        /* \"#utility.yul\":7040:7111   */\n      tag_148\n      jump\t// in\n    tag_239:\n        /* \"#utility.yul\":7033:7111   */\n      swap4\n      pop\n        /* \"#utility.yul\":7120:7185   */\n      tag_240\n        /* \"#utility.yul\":7178:7184   */\n      dup2\n        /* \"#utility.yul\":7173:7176   */\n      dup6\n        /* \"#utility.yul\":7166:7170   */\n      0x20\n        /* \"#utility.yul\":7159:7164   */\n      dup7\n        /* \"#utility.yul\":7155:7171   */\n      add\n        /* \"#utility.yul\":7120:7185   */\n      tag_155\n      jump\t// in\n    tag_240:\n        /* \"#utility.yul\":7210:7239   */\n      tag_241\n        /* \"#utility.yul\":7232:7238   */\n      dup2\n        /* \"#utility.yul\":7210:7239   */\n      tag_156\n      jump\t// in\n    tag_241:\n        /* \"#utility.yul\":7205:7208   */\n      dup5\n        /* \"#utility.yul\":7201:7240   */\n      add\n        /* \"#utility.yul\":7194:7240   */\n      swap2\n      pop\n        /* \"#utility.yul\":6961:7246   */\n      pop\n        /* \"#utility.yul\":6869:7246   */\n      swap3\n      swap2\n      pop\n      pop\n      jump\t// out\n        /* \"#utility.yul\":7252:7565   */\n    tag_127:\n        /* \"#utility.yul\":7365:7369   */\n      0x00\n        /* \"#utility.yul\":7403:7405   */\n      0x20\n        /* \"#utility.yul\":7392:7401   */\n      dup3\n        /* \"#utility.yul\":7388:7406   */\n      add\n        /* \"#utility.yul\":7380:7406   */\n      swap1\n      pop\n        /* \"#utility.yul\":7452:7461   */\n      dup2\n        /* \"#utility.yul\":7446:7450   */\n      dup2\n        /* \"#utility.yul\":7442:7462   */\n      sub\n        /* \"#utility.yul\":7438:7439   */\n      0x00\n        /* \"#utility.yul\":7427:7436   */\n      dup4\n        /* \"#utility.yul\":7423:7440   */\n      add\n        /* \"#utility.yul\":7416:7463   */\n      mstore\n        /* \"#utility.yul\":7480:7558   */\n      tag_243\n        /* \"#utility.yul\":7553:7557   */\n      dup2\n        /* \"#utility.yul\":7544:7550   */\n      dup5\n        /* \"#utility.yul\":7480:7558   */\n      tag_157\n      jump\t// in\n    tag_243:\n        /* \"#utility.yul\":7472:7558   */\n      swap1\n      pop\n        /* \"#utility.yul\":7252:7565   */\n      swap3\n      swap2\n      pop\n      pop\n      jump\t// out\n        /* \"#utility.yul\":7571:7747   */\n    tag_130:\n        /* \"#utility.yul\":7603:7604   */\n      0x00\n        /* \"#utility.yul\":7620:7640   */\n      tag_245\n        /* \"#utility.yul\":7638:7639   */\n      dup3\n        /* \"#utility.yul\":7620:7640   */\n      tag_138\n      jump\t// in\n    tag_245:\n        /* \"#utility.yul\":7615:7640   */\n      swap2\n      pop\n        /* \"#utility.yul\":7654:7674   */\n      tag_246\n        /* \"#utility.yul\":7672:7673   */\n      dup4\n        /* \"#utility.yul\":7654:7674   */\n      tag_138\n      jump\t// in\n    tag_246:\n        /* \"#utility.yul\":7649:7674   */\n      swap3\n      pop\n        /* \"#utility.yul\":7693:7694   */\n      dup3\n        /* \"#utility.yul\":7683:7718   */\n      tag_247\n      jumpi\n        /* \"#utility.yul\":7698:7716   */\n      tag_248\n      tag_153\n      jump\t// in\n    tag_248:\n        /* \"#utility.yul\":7683:7718   */\n    tag_247:\n        /* \"#utility.yul\":7739:7740   */\n      dup3\n        /* \"#utility.yul\":7736:7737   */\n      dup3\n        /* \"#utility.yul\":7732:7741   */\n      mod\n        /* \"#utility.yul\":7727:7741   */\n      swap1\n      pop\n        /* \"#utility.yul\":7571:7747   */\n      swap3\n      swap2\n      pop\n      pop\n      jump\t// out\n        /* \"#utility.yul\":7753:7928   */\n    tag_158:\n        /* \"#utility.yul\":7893:7920   */\n      0x526561636865642061206d756c7469706c65206f662031302100000000000000\n        /* \"#utility.yul\":7889:7890   */\n      0x00\n        /* \"#utility.yul\":7881:7887   */\n      dup3\n        /* \"#utility.yul\":7877:7891   */\n      add\n        /* \"#utility.yul\":7870:7921   */\n      mstore\n        /* \"#utility.yul\":7753:7928   */\n      pop\n      jump\t// out\n        /* \"#utility.yul\":7934:8300   */\n    tag_159:\n        /* \"#utility.yul\":8076:8079   */\n      0x00\n        /* \"#utility.yul\":8097:8164   */\n      tag_251\n        /* \"#utility.yul\":8161:8163   */\n      0x19\n        /* \"#utility.yul\":8156:8159   */\n      dup4\n        /* \"#utility.yul\":8097:8164   */\n      tag_148\n      jump\t// in\n    tag_251:\n        /* \"#utility.yul\":8090:8164   */\n      swap2\n      pop\n        /* \"#utility.yul\":8173:8266   */\n      tag_252\n        /* \"#utility.yul\":8262:8265   */\n      dup3\n        /* \"#utility.yul\":8173:8266   */\n      tag_158\n      jump\t// in\n    tag_252:\n        /* \"#utility.yul\":8291:8293   */\n      0x20\n        /* \"#utility.yul\":8286:8289   */\n      dup3\n        /* \"#utility.yul\":8282:8294   */\n      add\n        /* \"#utility.yul\":8275:8294   */\n      swap1\n      pop\n        /* \"#utility.yul\":7934:8300   */\n      swap2\n      swap1\n      pop\n      jump\t// out\n        /* \"#utility.yul\":8306:8725   */\n    tag_134:\n        /* \"#utility.yul\":8472:8476   */\n      0x00\n        /* \"#utility.yul\":8510:8512   */\n      0x20\n        /* \"#utility.yul\":8499:8508   */\n      dup3\n        /* \"#utility.yul\":8495:8513   */\n      add\n        /* \"#utility.yul\":8487:8513   */\n      swap1\n      pop\n        /* \"#utility.yul\":8559:8568   */\n      dup2\n        /* \"#utility.yul\":8553:8557   */\n      dup2\n        /* \"#utility.yul\":8549:8569   */\n      sub\n        /* \"#utility.yul\":8545:8546   */\n      0x00\n        /* \"#utility.yul\":8534:8543   */\n      dup4\n        /* \"#utility.yul\":8530:8547   */\n      add\n        /* \"#utility.yul\":8523:8570   */\n      mstore\n        /* \"#utility.yul\":8587:8718   */\n      tag_254\n        /* \"#utility.yul\":8713:8717   */\n      dup2\n        /* \"#utility.yul\":8587:8718   */\n      tag_159\n      jump\t// in\n    tag_254:\n        /* \"#utility.yul\":8579:8718   */\n      swap1\n      pop\n        /* \"#utility.yul\":8306:8725   */\n      swap2\n      swap1\n      pop\n      jump\t// out\n\n    auxdata: 0xa264697066735822122099157cf7b4263cb4ee26f2062a54a91714893b959338bef811b531f9831d940d64736f6c634300081e0033\n}\n",
				"bytecode": {
					"linkReferences": {},
					"object": "6080604052348015600e575f5ffd5b505f5f819055505f600181905550610d69806100295f395ff3fe6080604052600436106100e0575f3560e01c80638fdb71891161007e578063c59d484711610058578063c59d484714610269578063d09de08a14610295578063d826f88f146102ab578063ed232029146102c1576100e1565b80638fdb7189146102135780639dc9340a14610229578063b398e0b71461023f576100e1565b80633a0d17b2116100ba5780633a0d17b2146101495780634e43603a1461018557806360fe47b1146101c15780636d4ce63c146101e9576100e1565b80631003e2d2146100e35780631dc05f171461010b5780632baeceb714610133576100e1565b5b005b3480156100ee575f5ffd5b50610109600480360381019061010491906108d5565b6102eb565b005b348015610116575f5ffd5b50610131600480360381019061012c91906108d5565b610352565b005b34801561013e575f5ffd5b506101476103f5565b005b348015610154575f5ffd5b5061016f600480360381019061016a919061095a565b610497565b60405161017c9190610994565b60405180910390f35b348015610190575f5ffd5b506101ab60048036038101906101a6919061095a565b6104ac565b6040516101b89190610994565b60405180910390f35b3480156101cc575f5ffd5b506101e760048036038101906101e291906108d5565b6104f2565b005b3480156101f4575f5ffd5b506101fd610548565b60405161020a9190610994565b60405180910390f35b34801561021e575f5ffd5b50610227610550565b005b348015610234575f5ffd5b5061023d6105b7565b005b34801561024a575f5ffd5b50610253610616565b60405161026091906109bc565b60405180910390f35b348015610274575f5ffd5b5061027d61063b565b60405161028c939291906109d5565b60405180910390f35b3480156102a0575f5ffd5b506102a9610670565b005b3480156102b6575f5ffd5b506102bf6106d7565b005b3480156102cc575f5ffd5b506102d5610724565b6040516102e29190610994565b60405180910390f35b5f5f549050815f5f8282546103009190610a37565b925050819055506103466040518060400160405280600381526020017f61646400000000000000000000000000000000000000000000000000000000008152508261072a565b61034e61082b565b5050565b5f5f549050815f54101561039b576040517f08c379a000000000000000000000000000000000000000000000000000000000815260040161039290610ac4565b60405180910390fd5b815f5f8282546103ab9190610ae2565b925050819055506103f16040518060400160405280600881526020017f73756274726163740000000000000000000000000000000000000000000000008152508261072a565b5050565b5f5f5490505f5f541161043d576040517f08c379a000000000000000000000000000000000000000000000000000000000815260040161043490610b5f565b60405180910390fd5b60015f5f82825461044e9190610ae2565b925050819055506104946040518060400160405280600981526020017f64656372656d656e7400000000000000000000000000000000000000000000008152508261072a565b50565b6003602052805f5260405f205f915090505481565b5f60035f8373ffffffffffffffffffffffffffffffffffffffff1673ffffffffffffffffffffffffffffffffffffffff1681526020019081526020015f20549050919050565b5f5f549050815f8190555061053c6040518060400160405280600381526020017f73657400000000000000000000000000000000000000000000000000000000008152508261072a565b61054461082b565b5050565b5f5f54905090565b5f5f54905060025f5f8282546105669190610b7d565b925050819055506105ac6040518060400160405280600681526020017f646f75626c6500000000000000000000000000000000000000000000000000008152508261072a565b6105b461082b565b50565b5f5f54905060025f5f8282546105cd9190610beb565b925050819055506106136040518060400160405280600581526020017f68616c76650000000000000000000000000000000000000000000000000000008152508261072a565b50565b60025f9054906101000a900473ffffffffffffffffffffffffffffffffffffffff1681565b5f5f5f5f5460015460025f9054906101000a900473ffffffffffffffffffffffffffffffffffffffff16925092509250909192565b5f5f54905060015f5f8282546106869190610a37565b925050819055506106cc6040518060400160405280600981526020017f696e6372656d656e7400000000000000000000000000000000000000000000008152508261072a565b6106d461082b565b50565b5f5f5490505f5f819055506107216040518060400160405280600581526020017f72657365740000000000000000000000000000000000000000000000000000008152508261072a565b50565b60015481565b6001805f82825461073b9190610a37565b92505081905550600160035f3373ffffffffffffffffffffffffffffffffffffffff1673ffffffffffffffffffffffffffffffffffffffff1681526020019081526020015f205f82825461078f9190610a37565b925050819055503360025f6101000a81548173ffffffffffffffffffffffffffffffffffffffff021916908373ffffffffffffffffffffffffffffffffffffffff160217905550805f543373ffffffffffffffffffffffffffffffffffffffff167f185b9e2dada2f4b94ffeccf47bed30bfc83c4905a1d6dbad66a5c56b69f9789c8560405161081f9190610c7b565b60405180910390a45050565b5f600a5f5461083a9190610c9b565b14801561084857505f5f5414155b1561089c573373ffffffffffffffffffffffffffffffffffffffff165f547ff4afe5414fc2845d7c08deba18b72f6792e6fdb0867f4fcefd8b6a451a15209860405161089390610d15565b60405180910390a35b565b5f5ffd5b5f819050919050565b6108b4816108a2565b81146108be575f5ffd5b50565b5f813590506108cf816108ab565b92915050565b5f602082840312156108ea576108e961089e565b5b5f6108f7848285016108c1565b91505092915050565b5f73ffffffffffffffffffffffffffffffffffffffff82169050919050565b5f61092982610900565b9050919050565b6109398161091f565b8114610943575f5ffd5b50565b5f8135905061095481610930565b92915050565b5f6020828403121561096f5761096e61089e565b5b5f61097c84828501610946565b91505092915050565b61098e816108a2565b82525050565b5f6020820190506109a75f830184610985565b92915050565b6109b68161091f565b82525050565b5f6020820190506109cf5f8301846109ad565b92915050565b5f6060820190506109e85f830186610985565b6109f56020830185610985565b610a0260408301846109ad565b949350505050565b7f4e487b71000000000000000000000000000000000000000000000000000000005f52601160045260245ffd5b5f610a41826108a2565b9150610a4c836108a2565b9250828201905080821115610a6457610a63610a0a565b5b92915050565b5f82825260208201905092915050565b7f556e646572666c6f7700000000000000000000000000000000000000000000005f82015250565b5f610aae600983610a6a565b9150610ab982610a7a565b602082019050919050565b5f6020820190508181035f830152610adb81610aa2565b9050919050565b5f610aec826108a2565b9150610af7836108a2565b9250828203905081811115610b0f57610b0e610a0a565b5b92915050565b7f43616e6e6f742064656372656d656e742062656c6f77207a65726f00000000005f82015250565b5f610b49601b83610a6a565b9150610b5482610b15565b602082019050919050565b5f6020820190508181035f830152610b7681610b3d565b9050919050565b5f610b87826108a2565b9150610b92836108a2565b9250828202610ba0816108a2565b91508282048414831517610bb757610bb6610a0a565b5b5092915050565b7f4e487b71000000000000000000000000000000000000000000000000000000005f52601260045260245ffd5b5f610bf5826108a2565b9150610c00836108a2565b925082610c1057610c0f610bbe565b5b828204905092915050565b5f81519050919050565b8281835e5f83830152505050565b5f601f19601f8301169050919050565b5f610c4d82610c1b565b610c578185610a6a565b9350610c67818560208601610c25565b610c7081610c33565b840191505092915050565b5f6020820190508181035f830152610c938184610c43565b905092915050565b5f610ca5826108a2565b9150610cb0836108a2565b925082610cc057610cbf610bbe565b5b828206905092915050565b7f526561636865642061206d756c7469706c65206f6620313021000000000000005f82015250565b5f610cff601983610a6a565b9150610d0a82610ccb565b602082019050919050565b5f6020820190508181035f830152610d2c81610cf3565b905091905056fea264697066735822122099157cf7b4263cb4ee26f2062a54a91714893b959338bef811b531f9831d940d64736f6c634300081e0033",
					"opcodes": "PUSH1 0x80 PUSH1 0x40 MSTORE CALLVALUE DUP1 ISZERO PUSH1 0xE JUMPI PUSH0 PUSH0 REVERT JUMPDEST POP PUSH0 PUSH0 DUP2 SWAP1 SSTORE POP PUSH0 PUSH1 0x1 DUP2 SWAP1 SSTORE POP PUSH2 0xD69 DUP1 PUSH2 0x29 PUSH0 CODECOPY PUSH0 RETURN INVALID PUSH1 0x80 PUSH1 0x40 MSTORE PUSH1 0x4 CALLDATASIZE LT PUSH2 0xE0 JUMPI PUSH0 CALLDATALOAD PUSH1 0xE0 SHR DUP1 PUSH4 0x8FDB7189 GT PUSH2 0x7E JUMPI DUP1 PUSH4 0xC59D4847 GT PUSH2 0x58 JUMPI DUP1 PUSH4 0xC59D4847 EQ PUSH2 0x269 JUMPI DUP1 PUSH4 0xD09DE08A EQ PUSH2 0x295 JUMPI DUP1 PUSH4 0xD826F88F EQ PUSH2 0x2AB JUMPI DUP1 PUSH4 0xED232029 EQ PUSH2 0x2C1 JUMPI PUSH2 0xE1 JUMP JUMPDEST DUP1 PUSH4 0x8FDB7189 EQ PUSH2 0x213 JUMPI DUP1 PUSH4 0x9DC9340A EQ PUSH2 0x229 JUMPI DUP1 PUSH4 0xB398E0B7 EQ PUSH2 0x23F JUMPI PUSH2 0xE1 JUMP JUMPDEST DUP1 PUSH4 0x3A0D17B2 GT PUSH2 0xBA JUMPI DUP1 PUSH4 0x3A0D17B2 EQ PUSH2 0x149 JUMPI DUP1 PUSH4 0x4E43603A EQ PUSH2 0x185 JUMPI DUP1 PUSH4 0x60FE47B1 EQ PUSH2 0x1C1 JUMPI DUP1 PUSH4 0x6D4CE63C EQ PUSH2 0x1E9 JUMPI PUSH2 0xE1 JUMP JUMPDEST DUP1 PUSH4 0x1003E2D2 EQ PUSH2 0xE3 JUMPI DUP1 PUSH4 0x1DC05F17 EQ PUSH2 0x10B JUMPI DUP1 PUSH4 0x2BAECEB7 EQ PUSH2 0x133 JUMPI PUSH2 0xE1 JUMP JUMPDEST JUMPDEST STOP JUMPDEST CALLVALUE DUP1 ISZERO PUSH2 0xEE JUMPI PUSH0 PUSH0 REVERT JUMPDEST POP PUSH2 0x109 PUSH1 0x4 DUP1 CALLDATASIZE SUB DUP2 ADD SWAP1 PUSH2 0x104 SWAP2 SWAP1 PUSH2 0x8D5 JUMP JUMPDEST PUSH2 0x2EB JUMP JUMPDEST STOP JUMPDEST CALLVALUE DUP1 ISZERO PUSH2 0x116 JUMPI PUSH0 PUSH0 REVERT JUMPDEST POP PUSH2 0x131 PUSH1 0x4 DUP1 CALLDATASIZE SUB DUP2 ADD SWAP1 PUSH2 0x12C SWAP2 SWAP1 PUSH2 0x8D5 JUMP JUMPDEST PUSH2 0x352 JUMP JUMPDEST STOP JUMPDEST CALLVALUE DUP1 ISZERO PUSH2 0x13E JUMPI PUSH0 PUSH0 REVERT JUMPDEST POP PUSH2 0x147 PUSH2 0x3F5 JUMP JUMPDEST STOP JUMPDEST CALLVALUE DUP1 ISZERO PUSH2 0x154 JUMPI PUSH0 PUSH0 REVERT JUMPDEST POP PUSH2 0x16F PUSH1 0x4 DUP1 CALLDATASIZE SUB DUP2 ADD SWAP1 PUSH2 0x16A SWAP2 SWAP1 PUSH2 0x95A JUMP JUMPDEST PUSH2 0x497 JUMP JUMPDEST PUSH1 0x40 MLOAD PUSH2 0x17C SWAP2 SWAP1 PUSH2 0x994 JUMP JUMPDEST PUSH1 0x40 MLOAD DUP1 SWAP2 SUB SWAP1 RETURN JUMPDEST CALLVALUE DUP1 ISZERO PUSH2 0x190 JUMPI PUSH0 PUSH0 REVERT JUMPDEST POP PUSH2 0x1AB PUSH1 0x4 DUP1 CALLDATASIZE SUB DUP2 ADD SWAP1 PUSH2 0x1A6 SWAP2 SWAP1 PUSH2 0x95A JUMP JUMPDEST PUSH2 0x4AC JUMP JUMPDEST PUSH1 0x40 MLOAD PUSH2 0x1B8 SWAP2 SWAP1 PUSH2 0x994 JUMP JUMPDEST PUSH1 0x40 MLOAD DUP1 SWAP2 SUB SWAP1 RETURN JUMPDEST CALLVALUE DUP1 ISZERO PUSH2 0x1CC JUMPI PUSH0 PUSH0 REVERT JUMPDEST POP PUSH2 0x1E7 PUSH1 0x4 DUP1 CALLDATASIZE SUB DUP2 ADD SWAP1 PUSH2 0x1E2 SWAP2 SWAP1 PUSH2 0x8D5 JUMP JUMPDEST PUSH2 0x4F2 JUMP JUMPDEST STOP JUMPDEST CALLVALUE DUP1 ISZERO PUSH2 0x1F4 JUMPI PUSH0 PUSH0 REVERT JUMPDEST POP PUSH2 0x1FD PUSH2 0x548 JUMP JUMPDEST PUSH1 0x40 MLOAD PUSH2 0x20A SWAP2 SWAP1 PUSH2 0x994 JUMP JUMPDEST PUSH1 0x40 MLOAD DUP1 SWAP2 SUB SWAP1 RETURN JUMPDEST CALLVALUE DUP1 ISZERO PUSH2 0x21E JUMPI PUSH0 PUSH0 REVERT JUMPDEST POP PUSH2 0x227 PUSH2 0x550 JUMP JUMPDEST STOP JUMPDEST CALLVALUE DUP1 ISZERO PUSH2 0x234 JUMPI PUSH0 PUSH0 REVERT JUMPDEST POP PUSH2 0x23D PUSH2 0x5B7 JUMP JUMPDEST STOP JUMPDEST CALLVALUE DUP1 ISZERO PUSH2 0x24A JUMPI PUSH0 PUSH0 REVERT JUMPDEST POP PUSH2 0x253 PUSH2 0x616 JUMP JUMPDEST PUSH1 0x40 MLOAD PUSH2 0x260 SWAP2 SWAP1 PUSH2 0x9BC JUMP JUMPDEST PUSH1 0x40 MLOAD DUP1 SWAP2 SUB SWAP1 RETURN JUMPDEST CALLVALUE DUP1 ISZERO PUSH2 0x274 JUMPI PUSH0 PUSH0 REVERT JUMPDEST POP PUSH2 0x27D PUSH2 0x63B JUMP JUMPDEST PUSH1 0x40 MLOAD PUSH2 0x28C SWAP4 SWAP3 SWAP2 SWAP1 PUSH2 0x9D5 JUMP JUMPDEST PUSH1 0x40 MLOAD DUP1 SWAP2 SUB SWAP1 RETURN JUMPDEST CALLVALUE DUP1 ISZERO PUSH2 0x2A0 JUMPI PUSH0 PUSH0 REVERT JUMPDEST POP PUSH2 0x2A9 PUSH2 0x670 JUMP JUMPDEST STOP JUMPDEST CALLVALUE DUP1 ISZERO PUSH2 0x2B6 JUMPI PUSH0 PUSH0 REVERT JUMPDEST POP PUSH2 0x2BF PUSH2 0x6D7 JUMP JUMPDEST STOP JUMPDEST CALLVALUE DUP1 ISZERO PUSH2 0x2CC JUMPI PUSH0 PUSH0 REVERT JUMPDEST POP PUSH2 0x2D5 PUSH2 0x724 JUMP JUMPDEST PUSH1 0x40 MLOAD PUSH2 0x2E2 SWAP2 SWAP1 PUSH2 0x994 JUMP JUMPDEST PUSH1 0x40 MLOAD DUP1 SWAP2 SUB SWAP1 RETURN JUMPDEST PUSH0 PUSH0 SLOAD SWAP1 POP DUP2 PUSH0 PUSH0 DUP3 DUP3 SLOAD PUSH2 0x300 SWAP2 SWAP1 PUSH2 0xA37 JUMP JUMPDEST SWAP3 POP POP DUP2 SWAP1 SSTORE POP PUSH2 0x346 PUSH1 0x40 MLOAD DUP1 PUSH1 0x40 ADD PUSH1 0x40 MSTORE DUP1 PUSH1 0x3 DUP2 MSTORE PUSH1 0x20 ADD PUSH32 0x6164640000000000000000000000000000000000000000000000000000000000 DUP2 MSTORE POP DUP3 PUSH2 0x72A JUMP JUMPDEST PUSH2 0x34E PUSH2 0x82B JUMP JUMPDEST POP POP JUMP JUMPDEST PUSH0 PUSH0 SLOAD SWAP1 POP DUP2 PUSH0 SLOAD LT ISZERO PUSH2 0x39B JUMPI PUSH1 0x40 MLOAD PUSH32 0x8C379A000000000000000000000000000000000000000000000000000000000 DUP2 MSTORE PUSH1 0x4 ADD PUSH2 0x392 SWAP1 PUSH2 0xAC4 JUMP JUMPDEST PUSH1 0x40 MLOAD DUP1 SWAP2 SUB SWAP1 REVERT JUMPDEST DUP2 PUSH0 PUSH0 DUP3 DUP3 SLOAD PUSH2 0x3AB SWAP2 SWAP1 PUSH2 0xAE2 JUMP JUMPDEST SWAP3 POP POP DUP2 SWAP1 SSTORE POP PUSH2 0x3F1 PUSH1 0x40 MLOAD DUP1 PUSH1 0x40 ADD PUSH1 0x40 MSTORE DUP1 PUSH1 0x8 DUP2 MSTORE PUSH1 0x20 ADD PUSH32 0x7375627472616374000000000000000000000000000000000000000000000000 DUP2 MSTORE POP DUP3 PUSH2 0x72A JUMP JUMPDEST POP POP JUMP JUMPDEST PUSH0 PUSH0 SLOAD SWAP1 POP PUSH0 PUSH0 SLOAD GT PUSH2 0x43D JUMPI PUSH1 0x40 MLOAD PUSH32 0x8C379A000000000000000000000000000000000000000000000000000000000 DUP2 MSTORE PUSH1 0x4 ADD PUSH2 0x434 SWAP1 PUSH2 0xB5F JUMP JUMPDEST PUSH1 0x40 MLOAD DUP1 SWAP2 SUB SWAP1 REVERT JUMPDEST PUSH1 0x1 PUSH0 PUSH0 DUP3 DUP3 SLOAD PUSH2 0x44E SWAP2 SWAP1 PUSH2 0xAE2 JUMP JUMPDEST SWAP3 POP POP DUP2 SWAP1 SSTORE POP PUSH2 0x494 PUSH1 0x40 MLOAD DUP1 PUSH1 0x40 ADD PUSH1 0x40 MSTORE DUP1 PUSH1 0x9 DUP2 MSTORE PUSH1 0x20 ADD PUSH32 0x64656372656D656E740000000000000000000000000000000000000000000000 DUP2 MSTORE POP DUP3 PUSH2 0x72A JUMP JUMPDEST POP JUMP JUMPDEST PUSH1 0x3 PUSH1 0x20 MSTORE DUP1 PUSH0 MSTORE PUSH1 0x40 PUSH0 KECCAK256 PUSH0 SWAP2 POP SWAP1 POP SLOAD DUP2 JUMP JUMPDEST PUSH0 PUSH1 0x3 PUSH0 DUP4 PUSH20 0xFFFFFFFFFFFFFFFFFFFFFFFFFFFFFFFFFFFFFFFF AND PUSH20 0xFFFFFFFFFFFFFFFFFFFFFFFFFFFFFFFFFFFFFFFF AND DUP2 MSTORE PUSH1 0x20 ADD SWAP1 DUP2 MSTORE PUSH1 0x20 ADD PUSH0 KECCAK256 SLOAD SWAP1 POP SWAP2 SWAP1 POP JUMP JUMPDEST PUSH0 PUSH0 SLOAD SWAP1 POP DUP2 PUSH0 DUP2 SWAP1 SSTORE POP PUSH2 0x53C PUSH1 0x40 MLOAD DUP1 PUSH1 0x40 ADD PUSH1 0x40 MSTORE DUP1 PUSH1 0x3 DUP2 MSTORE PUSH1 0x20 ADD PUSH32 0x7365740000000000000000000000000000000000000000000000000000000000 DUP2 MSTORE POP DUP3 PUSH2 0x72A JUMP JUMPDEST PUSH2 0x544 PUSH2 0x82B JUMP JUMPDEST POP POP JUMP JUMPDEST PUSH0 PUSH0 SLOAD SWAP1 POP SWAP1 JUMP JUMPDEST PUSH0 PUSH0 SLOAD SWAP1 POP PUSH1 0x2 PUSH0 PUSH0 DUP3 DUP3 SLOAD PUSH2 0x566 SWAP2 SWAP1 PUSH2 0xB7D JUMP JUMPDEST SWAP3 POP POP DUP2 SWAP1 SSTORE POP PUSH2 0x5AC PUSH1 0x40 MLOAD DUP1 PUSH1 0x40 ADD PUSH1 0x40 MSTORE DUP1 PUSH1 0x6 DUP2 MSTORE PUSH1 0x20 ADD PUSH32 0x646F75626C650000000000000000000000000000000000000000000000000000 DUP2 MSTORE POP DUP3 PUSH2 0x72A JUMP JUMPDEST PUSH2 0x5B4 PUSH2 0x82B JUMP JUMPDEST POP JUMP JUMPDEST PUSH0 PUSH0 SLOAD SWAP1 POP PUSH1 0x2 PUSH0 PUSH0 DUP3 DUP3 SLOAD PUSH2 0x5CD SWAP2 SWAP1 PUSH2 0xBEB JUMP JUMPDEST SWAP3 POP POP DUP2 SWAP1 SSTORE POP PUSH2 0x613 PUSH1 0x40 MLOAD DUP1 PUSH1 0x40 ADD PUSH1 0x40 MSTORE DUP1 PUSH1 0x5 DUP2 MSTORE PUSH1 0x20 ADD PUSH32 0x68616C7665000000000000000000000000000000000000000000000000000000 DUP2 MSTORE POP DUP3 PUSH2 0x72A JUMP JUMPDEST POP JUMP JUMPDEST PUSH1 0x2 PUSH0 SWAP1 SLOAD SWAP1 PUSH2 0x100 EXP SWAP1 DIV PUSH20 0xFFFFFFFFFFFFFFFFFFFFFFFFFFFFFFFFFFFFFFFF AND DUP2 JUMP JUMPDEST PUSH0 PUSH0 PUSH0 PUSH0 SLOAD PUSH1 0x1 SLOAD PUSH1 0x2 PUSH0 SWAP1 SLOAD SWAP1 PUSH2 0x100 EXP SWAP1 DIV PUSH20 0xFFFFFFFFFFFFFFFFFFFFFFFFFFFFFFFFFFFFFFFF AND SWAP3 POP SWAP3 POP SWAP3 POP SWAP1 SWAP2 SWAP3 JUMP JUMPDEST PUSH0 PUSH0 SLOAD SWAP1 POP PUSH1 0x1 PUSH0 PUSH0 DUP3 DUP3 SLOAD PUSH2 0x686 SWAP2 SWAP1 PUSH2 0xA37 JUMP JUMPDEST SWAP3 POP POP DUP2 SWAP1 SSTORE POP PUSH2 0x6CC PUSH1 0x40 MLOAD DUP1 PUSH1 0x40 ADD PUSH1 0x40 MSTORE DUP1 PUSH1 0x9 DUP2 MSTORE PUSH1 0x20 ADD PUSH32 0x696E6372656D656E740000000000000000000000000000000000000000000000 DUP2 MSTORE POP DUP3 PUSH2 0x72A JUMP JUMPDEST PUSH2 0x6D4 PUSH2 0x82B JUMP JUMPDEST POP JUMP JUMPDEST PUSH0 PUSH0 SLOAD SWAP1 POP PUSH0 PUSH0 DUP2 SWAP1 SSTORE POP PUSH2 0x721 PUSH1 0x40 MLOAD DUP1 PUSH1 0x40 ADD PUSH1 0x40 MSTORE DUP1 PUSH1 0x5 DUP2 MSTORE PUSH1 0x20 ADD PUSH32 0x7265736574000000000000000000000000000000000000000000000000000000 DUP2 MSTORE POP DUP3 PUSH2 0x72A JUMP JUMPDEST POP JUMP JUMPDEST PUSH1 0x1 SLOAD DUP2 JUMP JUMPDEST PUSH1 0x1 DUP1 PUSH0 DUP3 DUP3 SLOAD PUSH2 0x73B SWAP2 SWAP1 PUSH2 0xA37 JUMP JUMPDEST SWAP3 POP POP DUP2 SWAP1 SSTORE POP PUSH1 0x1 PUSH1 0x3 PUSH0 CALLER PUSH20 0xFFFFFFFFFFFFFFFFFFFFFFFFFFFFFFFFFFFFFFFF AND PUSH20 0xFFFFFFFFFFFFFFFFFFFFFFFFFFFFFFFFFFFFFFFF AND DUP2 MSTORE PUSH1 0x20 ADD SWAP1 DUP2 MSTORE PUSH1 0x20 ADD PUSH0 KECCAK256 PUSH0 DUP3 DUP3 SLOAD PUSH2 0x78F SWAP2 SWAP1 PUSH2 0xA37 JUMP JUMPDEST SWAP3 POP POP DUP2 SWAP1 SSTORE POP CALLER PUSH1 0x2 PUSH0 PUSH2 0x100 EXP DUP2 SLOAD DUP2 PUSH20 0xFFFFFFFFFFFFFFFFFFFFFFFFFFFFFFFFFFFFFFFF MUL NOT AND SWAP1 DUP4 PUSH20 0xFFFFFFFFFFFFFFFFFFFFFFFFFFFFFFFFFFFFFFFF AND MUL OR SWAP1 SSTORE POP DUP1 PUSH0 SLOAD CALLER PUSH20 0xFFFFFFFFFFFFFFFFFFFFFFFFFFFFFFFFFFFFFFFF AND PUSH32 0x185B9E2DADA2F4B94FFECCF47BED30BFC83C4905A1D6DBAD66A5C56B69F9789C DUP6 PUSH1 0x40 MLOAD PUSH2 0x81F SWAP2 SWAP1 PUSH2 0xC7B JUMP JUMPDEST PUSH1 0x40 MLOAD DUP1 SWAP2 SUB SWAP1 LOG4 POP POP JUMP JUMPDEST PUSH0 PUSH1 0xA PUSH0 SLOAD PUSH2 0x83A SWAP2 SWAP1 PUSH2 0xC9B JUMP JUMPDEST EQ DUP1 ISZERO PUSH2 0x848 JUMPI POP PUSH0 PUSH0 SLOAD EQ ISZERO JUMPDEST ISZERO PUSH2 0x89C JUMPI CALLER PUSH20 0xFFFFFFFFFFFFFFFFFFFFFFFFFFFFFFFFFFFFFFFF AND PUSH0 SLOAD PUSH32 0xF4AFE5414FC2845D7C08DEBA18B72F6792E6FDB0867F4FCEFD8B6A451A152098 PUSH1 0x40 MLOAD PUSH2 0x893 SWAP1 PUSH2 0xD15 JUMP JUMPDEST PUSH1 0x40 MLOAD DUP1 SWAP2 SUB SWAP1 LOG3 JUMPDEST JUMP JUMPDEST PUSH0 PUSH0 REVERT JUMPDEST PUSH0 DUP2 SWAP1 POP SWAP2 SWAP1 POP JUMP JUMPDEST PUSH2 0x8B4 DUP2 PUSH2 0x8A2 JUMP JUMPDEST DUP2 EQ PUSH2 0x8BE JUMPI PUSH0 PUSH0 REVERT JUMPDEST POP JUMP JUMPDEST PUSH0 DUP2 CALLDATALOAD SWAP1 POP PUSH2 0x8CF DUP2 PUSH2 0x8AB JUMP JUMPDEST SWAP3 SWAP2 POP POP JUMP JUMPDEST PUSH0 PUSH1 0x20 DUP3 DUP5 SUB SLT ISZERO PUSH2 0x8EA JUMPI PUSH2 0x8E9 PUSH2 0x89E JUMP JUMPDEST JUMPDEST PUSH0 PUSH2 0x8F7 DUP5 DUP3 DUP6 ADD PUSH2 0x8C1 JUMP JUMPDEST SWAP2 POP POP SWAP3 SWAP2 POP POP JUMP JUMPDEST PUSH0 PUSH20 0xFFFFFFFFFFFFFFFFFFFFFFFFFFFFFFFFFFFFFFFF DUP3 AND SWAP1 POP SWAP2 SWAP1 POP JUMP JUMPDEST PUSH0 PUSH2 0x929 DUP3 PUSH2 0x900 JUMP JUMPDEST SWAP1 POP SWAP2 SWAP1 POP JUMP JUMPDEST PUSH2 0x939 DUP2 PUSH2 0x91F JUMP JUMPDEST DUP2 EQ PUSH2 0x943 JUMPI PUSH0 PUSH0 REVERT JUMPDEST POP JUMP JUMPDEST PUSH0 DUP2 CALLDATALOAD SWAP1 POP PUSH2 0x954 DUP2 PUSH2 0x930 JUMP JUMPDEST SWAP3 SWAP2 POP POP JUMP JUMPDEST PUSH0 PUSH1 0x20 DUP3 DUP5 SUB SLT ISZERO PUSH2 0x96F JUMPI PUSH2 0x96E PUSH2 0x89E JUMP JUMPDEST JUMPDEST PUSH0 PUSH2 0x97C DUP5 DUP3 DUP6 ADD PUSH2 0x946 JUMP JUMPDEST SWAP2 POP POP SWAP3 SWAP2 POP POP JUMP JUMPDEST PUSH2 0x98E DUP2 PUSH2 0x8A2 JUMP JUMPDEST DUP3 MSTORE POP POP JUMP JUMPDEST PUSH0 PUSH1 0x20 DUP3 ADD SWAP1 POP PUSH2 0x9A7 PUSH0 DUP4 ADD DUP5 PUSH2 0x985 JUMP JUMPDEST SWAP3 SWAP2 POP POP JUMP JUMPDEST PUSH2 0x9B6 DUP2 PUSH2 0x91F JUMP JUMPDEST DUP3 MSTORE POP POP JUMP JUMPDEST PUSH0 PUSH1 0x20 DUP3 ADD SWAP1 POP PUSH2 0x9CF PUSH0 DUP4 ADD DUP5 PUSH2 0x9AD JUMP JUMPDEST SWAP3 SWAP2 POP POP JUMP JUMPDEST PUSH0 PUSH1 0x60 DUP3 ADD SWAP1 POP PUSH2 0x9E8 PUSH0 DUP4 ADD DUP7 PUSH2 0x985 JUMP JUMPDEST PUSH2 0x9F5 PUSH1 0x20 DUP4 ADD DUP6 PUSH2 0x985 JUMP JUMPDEST PUSH2 0xA02 PUSH1 0x40 DUP4 ADD DUP5 PUSH2 0x9AD JUMP JUMPDEST SWAP5 SWAP4 POP POP POP POP JUMP JUMPDEST PUSH32 0x4E487B7100000000000000000000000000000000000000000000000000000000 PUSH0 MSTORE PUSH1 0x11 PUSH1 0x4 MSTORE PUSH1 0x24 PUSH0 REVERT JUMPDEST PUSH0 PUSH2 0xA41 DUP3 PUSH2 0x8A2 JUMP JUMPDEST SWAP2 POP PUSH2 0xA4C DUP4 PUSH2 0x8A2 JUMP JUMPDEST SWAP3 POP DUP3 DUP3 ADD SWAP1 POP DUP1 DUP3 GT ISZERO PUSH2 0xA64 JUMPI PUSH2 0xA63 PUSH2 0xA0A JUMP JUMPDEST JUMPDEST SWAP3 SWAP2 POP POP JUMP JUMPDEST PUSH0 DUP3 DUP3 MSTORE PUSH1 0x20 DUP3 ADD SWAP1 POP SWAP3 SWAP2 POP POP JUMP JUMPDEST PUSH32 0x556E646572666C6F770000000000000000000000000000000000000000000000 PUSH0 DUP3 ADD MSTORE POP JUMP JUMPDEST PUSH0 PUSH2 0xAAE PUSH1 0x9 DUP4 PUSH2 0xA6A JUMP JUMPDEST SWAP2 POP PUSH2 0xAB9 DUP3 PUSH2 0xA7A JUMP JUMPDEST PUSH1 0x20 DUP3 ADD SWAP1 POP SWAP2 SWAP1 POP JUMP JUMPDEST PUSH0 PUSH1 0x20 DUP3 ADD SWAP1 POP DUP2 DUP2 SUB PUSH0 DUP4 ADD MSTORE PUSH2 0xADB DUP2 PUSH2 0xAA2 JUMP JUMPDEST SWAP1 POP SWAP2 SWAP1 POP JUMP JUMPDEST PUSH0 PUSH2 0xAEC DUP3 PUSH2 0x8A2 JUMP JUMPDEST SWAP2 POP PUSH2 0xAF7 DUP4 PUSH2 0x8A2 JUMP JUMPDEST SWAP3 POP DUP3 DUP3 SUB SWAP1 POP DUP2 DUP2 GT ISZERO PUSH2 0xB0F JUMPI PUSH2 0xB0E PUSH2 0xA0A JUMP JUMPDEST JUMPDEST SWAP3 SWAP2 POP POP JUMP JUMPDEST PUSH32 0x43616E6E6F742064656372656D656E742062656C6F77207A65726F0000000000 PUSH0 DUP3 ADD MSTORE POP JUMP JUMPDEST PUSH0 PUSH2 0xB49 PUSH1 0x1B DUP4 PUSH2 0xA6A JUMP JUMPDEST SWAP2 POP PUSH2 0xB54 DUP3 PUSH2 0xB15 JUMP JUMPDEST PUSH1 0x20 DUP3 ADD SWAP1 POP SWAP2 SWAP1 POP JUMP JUMPDEST PUSH0 PUSH1 0x20 DUP3 ADD SWAP1 POP DUP2 DUP2 SUB PUSH0 DUP4 ADD MSTORE PUSH2 0xB76 DUP2 PUSH2 0xB3D JUMP JUMPDEST SWAP1 POP SWAP2 SWAP1 POP JUMP JUMPDEST PUSH0 PUSH2 0xB87 DUP3 PUSH2 0x8A2 JUMP JUMPDEST SWAP2 POP PUSH2 0xB92 DUP4 PUSH2 0x8A2 JUMP JUMPDEST SWAP3 POP DUP3 DUP3 MUL PUSH2 0xBA0 DUP2 PUSH2 0x8A2 JUMP JUMPDEST SWAP2 POP DUP3 DUP3 DIV DUP5 EQ DUP4 ISZERO OR PUSH2 0xBB7 JUMPI PUSH2 0xBB6 PUSH2 0xA0A JUMP JUMPDEST JUMPDEST POP SWAP3 SWAP2 POP POP JUMP JUMPDEST PUSH32 0x4E487B7100000000000000000000000000000000000000000000000000000000 PUSH0 MSTORE PUSH1 0x12 PUSH1 0x4 MSTORE PUSH1 0x24 PUSH0 REVERT JUMPDEST PUSH0 PUSH2 0xBF5 DUP3 PUSH2 0x8A2 JUMP JUMPDEST SWAP2 POP PUSH2 0xC00 DUP4 PUSH2 0x8A2 JUMP JUMPDEST SWAP3 POP DUP3 PUSH2 0xC10 JUMPI PUSH2 0xC0F PUSH2 0xBBE JUMP JUMPDEST JUMPDEST DUP3 DUP3 DIV SWAP1 POP SWAP3 SWAP2 POP POP JUMP JUMPDEST PUSH0 DUP2 MLOAD SWAP1 POP SWAP2 SWAP1 POP JUMP JUMPDEST DUP3 DUP2 DUP4 MCOPY PUSH0 DUP4 DUP4 ADD MSTORE POP POP POP JUMP JUMPDEST PUSH0 PUSH1 0x1F NOT PUSH1 0x1F DUP4 ADD AND SWAP1 POP SWAP2 SWAP1 POP JUMP JUMPDEST PUSH0 PUSH2 0xC4D DUP3 PUSH2 0xC1B JUMP JUMPDEST PUSH2 0xC57 DUP2 DUP6 PUSH2 0xA6A JUMP JUMPDEST SWAP4 POP PUSH2 0xC67 DUP2 DUP6 PUSH1 0x20 DUP7 ADD PUSH2 0xC25 JUMP JUMPDEST PUSH2 0xC70 DUP2 PUSH2 0xC33 JUMP JUMPDEST DUP5 ADD SWAP2 POP POP SWAP3 SWAP2 POP POP JUMP JUMPDEST PUSH0 PUSH1 0x20 DUP3 ADD SWAP1 POP DUP2 DUP2 SUB PUSH0 DUP4 ADD MSTORE PUSH2 0xC93 DUP2 DUP5 PUSH2 0xC43 JUMP JUMPDEST SWAP1 POP SWAP3 SWAP2 POP POP JUMP JUMPDEST PUSH0 PUSH2 0xCA5 DUP3 PUSH2 0x8A2 JUMP JUMPDEST SWAP2 POP PUSH2 0xCB0 DUP4 PUSH2 0x8A2 JUMP JUMPDEST SWAP3 POP DUP3 PUSH2 0xCC0 JUMPI PUSH2 0xCBF PUSH2 0xBBE JUMP JUMPDEST JUMPDEST DUP3 DUP3 MOD SWAP1 POP SWAP3 SWAP2 POP POP JUMP JUMPDEST PUSH32 0x526561636865642061206D756C7469706C65206F662031302100000000000000 PUSH0 DUP3 ADD MSTORE POP JUMP JUMPDEST PUSH0 PUSH2 0xCFF PUSH1 0x19 DUP4 PUSH2 0xA6A JUMP JUMPDEST SWAP2 POP PUSH2 0xD0A DUP3 PUSH2 0xCCB JUMP JUMPDEST PUSH1 0x20 DUP3 ADD SWAP1 POP SWAP2 SWAP1 POP JUMP JUMPDEST PUSH0 PUSH1 0x20 DUP3 ADD SWAP1 POP DUP2 DUP2 SUB PUSH0 DUP4 ADD MSTORE PUSH2 0xD2C DUP2 PUSH2 0xCF3 JUMP JUMPDEST SWAP1 POP SWAP2 SWAP1 POP JUMP INVALID LOG2 PUSH5 0x6970667358 0x22 SLT KECCAK256 SWAP10 ISZERO PUSH29 0xF7B4263CB4EE26F2062A54A91714893B959338BEF811B531F9831D940D PUSH5 0x736F6C6343 STOP ADDMOD 0x1E STOP CALLER "
				},
				"gasEstimates": {
					"creation": {
						"codeDepositCost": "686600",
						"executionCost": "10744",
						"totalCost": "697344"
					},
					"external": {
						"": "174",
						"add(uint256)": "infinite",
						"decrement()": "infinite",
						"double()": "infinite",
						"get()": "2520",
						"getStats()": "infinite",
						"getUserStats(address)": "2874",
						"halve()": "infinite",
						"increment()": "infinite",
						"lastChanger()": "2575",
						"reset()": "infinite",
						"set(uint256)": "infinite",
						"subtract(uint256)": "infinite",
						"totalOperations()": "2513",
						"userOperations(address)": "2825"
					},
					"internal": {
						"_checkMilestone()": "infinite",
						"_logChange(string memory,uint256)": "infinite"
					}
				},
				"methodIdentifiers": {
					"add(uint256)": "1003e2d2",
					"decrement()": "2baeceb7",
					"double()": "8fdb7189",
					"get()": "6d4ce63c",
					"getStats()": "c59d4847",
					"getUserStats(address)": "4e43603a",
					"halve()": "9dc9340a",
					"increment()": "d09de08a",
					"lastChanger()": "b398e0b7",
					"reset()": "d826f88f",
					"set(uint256)": "60fe47b1",
					"subtract(uint256)": "1dc05f17",
					"totalOperations()": "ed232029",
					"userOperations(address)": "3a0d17b2"
				}
			},
			"storageLayout": {
				"storage": [
					{
						"astId": 3,
						"contract": "contracts/3_Ballot.sol:AdvancedCounter",
						"label": "value",
						"offset": 0,
						"slot": "0",
						"type": "t_uint256"
					},
					{
						"astId": 5,
						"contract": "contracts/3_Ballot.sol:AdvancedCounter",
						"label": "totalOperations",
						"offset": 0,
						"slot": "1",
						"type": "t_uint256"
					},
					{
						"astId": 7,
						"contract": "contracts/3_Ballot.sol:AdvancedCounter",
						"label": "lastChanger",
						"offset": 0,
						"slot": "2",
						"type": "t_address"
					},
					{
						"astId": 11,
						"contract": "contracts/3_Ballot.sol:AdvancedCounter",
						"label": "userOperations",
						"offset": 0,
						"slot": "3",
						"type": "t_mapping(t_address,t_uint256)"
					}
				],
				"types": {
					"t_address": {
						"encoding": "inplace",
						"label": "address",
						"numberOfBytes": "20"
					},
					"t_mapping(t_address,t_uint256)": {
						"encoding": "mapping",
						"key": "t_address",
						"label": "mapping(address => uint256)",
						"numberOfBytes": "32",
						"value": "t_uint256"
					},
					"t_uint256": {
						"encoding": "inplace",
						"label": "uint256",
						"numberOfBytes": "32"
					}
				}
			},
			"userdoc": {
				"kind": "user",
				"methods": {},
				"version": 1
			}
		}
	}
}