{
	"data": {
		"bytecode": {
			"linkReferences": {},
			"object": "6080604052348015600e575f5ffd5b505f5f819055505f600181905550610d69806100295f395ff3fe6080604052600436106100e0575f3560e01c80638fdb71891161007e578063c59d484711610058578063c59d484714610269578063d09de08a14610295578063d826f88f146102ab578063ed232029146102c1576100e1565b80638fdb7189146102135780639dc9340a14610229578063b398e0b71461023f576100e1565b80633a0d17b2116100ba5780633a0d17b2146101495780634e43603a1461018557806360fe47b1146101c15780636d4ce63c146101e9576100e1565b80631003e2d2146100e35780631dc05f171461010b5780632baeceb714610133576100e1565b5b005b3480156100ee575f5ffd5b50610109600480360381019061010491906108d5565b6102eb565b005b348015610116575f5ffd5b50610131600480360381019061012c91906108d5565b610352565b005b34801561013e575f5ffd5b506101476103f5565b005b348015610154575f5ffd5b5061016f600480360381019061016a919061095a565b610497565b60405161017c9190610994565b60405180910390f35b348015610190575f5ffd5b506101ab60048036038101906101a6919061095a565b6104ac565b6040516101b89190610994565b60405180910390f35b3480156101cc575f5ffd5b506101e760048036038101906101e291906108d5565b6104f2565b005b3480156101f4575f5ffd5b506101fd610548565b60405161020a9190610994565b60405180910390f35b34801561021e575f5ffd5b50610227610550565b005b348015610234575f5ffd5b5061023d6105b7565b005b34801561024a575f5ffd5b50610253610616565b60405161026091906109bc565b60405180910390f35b348015610274575f5ffd5b5061027d61063b565b60405161028c939291906109d5565b60405180910390f35b3480156102a0575f5ffd5b506102a9610670565b005b3480156102b6575f5ffd5b506102bf6106d7565b005b3480156102cc575f5ffd5b506102d5610724565b6040516102e29190610994565b60405180910390f35b5f5f549050815f5f8282546103009190610a37565b925050819055506103466040518060400160405280600381526020017f61646400000000000000000000000000000000000000000000000000000000008152508261072a565b61034e61082b565b5050565b5f5f549050815f54101561039b576040517f08c379a000000000000000000000000000000000000000000000000000000000815260040161039290610ac4565b60405180910390fd5b815f5f8282546103ab9190610ae2565b925050819055506103f16040518060400160405280600881526020017f73756274726163740000000000000000000000000000000000000000000000008152508261072a565b5050565b5f5f5490505f5f541161043d576040517f08c379a000000000000000000000000000000000000000000000000000000000815260040161043490610b5f565b60405180910390fd5b60015f5f82825461044e9190610ae2565b925050819055506104946040518060400160405280600981526020017f64656372656d656e7400000000000000000000000000000000000000000000008152508261072a565b50565b6003602052805f5260405f205f915090505481565b5f60035f8373ffffffffffffffffffffffffffffffffffffffff1673ffffffffffffffffffffffffffffffffffffffff1681526020019081526020015f20549050919050565b5f5f549050815f8190555061053c6040518060400160405280600381526020017f73657400000000000000000000000000000000000000000000000000000000008152508261072a565b61054461082b565b5050565b5f5f54905090565b5f5f54905060025f5f8282546105669190610b7d565b925050819055506105ac6040518060400160405280600681526020017f646f75626c6500000000000000000000000000000000000000000000000000008152508261072a565b6105b461082b565b50565b5f5f54905060025f5f8282546105cd9190610beb565b925050819055506106136040518060400160405280600581526020017f68616c76650000000000000000000000000000000000000000000000000000008152508261072a565b50565b60025f9054906101000a900473ffffffffffffffffffffffffffffffffffffffff1681565b5f5f5f5f5460015460025f9054906101000a900473ffffffffffffffffffffffffffffffffffffffff16925092509250909192565b5f5f54905060015f5f8282546106869190610a37565b925050819055506106cc6040518060400160405280600981526020017f696e6372656d656e7400000000000000000000000000000000000000000000008152508261072a565b6106d461082b565b50565b5f5f5490505f5f819055506107216040518060400160405280600581526020017f72657365740000000000000000000000000000000000000000000000000000008152508261072a565b50565b60015481565b6001805f82825461073b9190610a37565b92505081905550600160035f3373ffffffffffffffffffffffffffffffffffffffff1673ffffffffffffffffffffffffffffffffffffffff1681526020019081526020015f205f82825461078f9190610a37565b925050819055503360025f6101000a81548173ffffffffffffffffffffffffffffffffffffffff021916908373ffffffffffffffffffffffffffffffffffffffff160217905550805f543373ffffffffffffffffffffffffffffffffffffffff167f185b9e2dada2f4b94ffeccf47bed30bfc83c4905a1d6dbad66a5c56b69f9789c8560405161081f9190610c7b565b60405180910390a45050565b5f600a5f5461083a9190610c9b565b14801561084857505f5f5414155b1561089c573373ffffffffffffffffffffffffffffffffffffffff165f547ff4afe5414fc2845d7c08deba18b72f6792e6fdb0867f4fcefd8b6a451a15209860405161089390610d15565b60405180910390a35b565b5f5ffd5b5f819050919050565b6108b4816108a2565b81146108be575f5ffd5b50565b5f813590506108cf816108ab565b92915050565b5f602082840312156108ea576108e961089e565b5b5f6108f7848285016108c1565b91505092915050565b5f73ffffffffffffffffffffffffffffffffffffffff82169050919050565b5f61092982610900565b9050919050565b6109398161091f565b8114610943575f5ffd5b50565b5f8135905061095481610930565b92915050565b5f6020828403121561096f5761096e61089e565b5b5f61097c84828501610946565b91505092915050565b61098e816108a2565b82525050565b5f6020820190506109a75f830184610985565b92915050565b6109b68161091f565b82525050565b5f6020820190506109cf5f8301846109ad565b92915050565b5f6060820190506109e85f830186610985565b6109f56020830185610985565b610a0260408301846109ad565b949350505050565b7f4e487b71000000000000000000000000000000000000000000000000000000005f52601160045260245ffd5b5f610a41826108a2565b9150610a4c836108a2565b9250828201905080821115610a6457610a63610a0a565b5b92915050565b5f82825260208201905092915050565b7f556e646572666c6f7700000000000000000000000000000000000000000000005f82015250565b5f610aae600983610a6a565b9150610ab982610a7a565b602082019050919050565b5f6020820190508181035f830152610adb81610aa2565b9050919050565b5f610aec826108a2565b9150610af7836108a2565b9250828203905081811115610b0f57610b0e610a0a565b5b92915050565b7f43616e6e6f742064656372656d656e742062656c6f77207a65726f00000000005f82015250565b5f610b49601b83610a6a565b9150610b5482610b15565b602082019050919050565b5f6020820190508181035f830152610b7681610b3d565b9050919050565b5f610b87826108a2565b9150610b92836108a2565b9250828202610ba0816108a2565b91508282048414831517610bb757610bb6610a0a565b5b5092915050565b7f4e487b71000000000000000000000000000000000000000000000000000000005f52601260045260245ffd5b5f610bf5826108a2565b9150610c00836108a2565b925082610c1057610c0f610bbe565b5b828204905092915050565b5f81519050919050565b8281835e5f83830152505050565b5f601f19601f8301169050919050565b5f610c4d82610c1b565b610c578185610a6a565b9350610c67818560208601610c25565b610c7081610c33565b840191505092915050565b5f6020820190508181035f830152610c938184610c43565b905092915050565b5f610ca5826108a2565b9150610cb0836108a2565b925082610cc057610cbf610bbe565b5b828206905092915050565b7f526561636865642061206d756c7469706c65206f6620313021000000000000005f82015250565b5f610cff601983610a6a565b9150610d0a82610ccb565b602082019050919050565b5f6020820190508181035f830152610d2c81610cf3565b905091905056fea264697066735822122099157cf7b4263cb4ee26f2062a54a91714893b959338bef811b531f9831d940d64736f6c634300081e0033",
			"opcodes": "PUSH1 0x80 PUSH1 0x40 MSTORE CALLVALUE DUP1 ISZERO PUSH1 0xE JUMPI PUSH0 PUSH0 REVERT JUMPDEST POP PUSH0 PUSH0 DUP2 SWAP1 SSTORE POP PUSH0 PUSH1 0x1 DUP2 SWAP1 SSTORE POP PUSH2 0xD69 DUP1 PUSH2 0x29 PUSH0 CODECOPY PUSH0 RETURN INVALID PUSH1 0x80 PUSH1 0x40 MSTORE PUSH1 0x4 CALLDATASIZE LT PUSH2 0xE0 JUMPI PUSH0 CALLDATALOAD PUSH1 0xE0 SHR DUP1 PUSH4 0x8FDB7189 GT PUSH2 0x7E JUMPI DUP1 PUSH4 0xC59D4847 GT PUSH2 0x58 JUMPI DUP1 PUSH4 0xC59D4847 EQ PUSH2 0x269 JUMPI DUP1 PUSH4 0xD09DE08A EQ PUSH2 0x295 JUMPI DUP1 PUSH4 0xD826F88F EQ PUSH2 0x2AB JUMPI DUP1 PUSH4 0xED232029 EQ PUSH2 0x2C1 JUMPI PUSH2 0xE1 JUMP JUMPDEST DUP1 PUSH4 0x8FDB7189 EQ PUSH2 0x213 JUMPI DUP1 PUSH4 0x9DC9340A EQ PUSH2 0x229 JUMPI DUP1 PUSH4 0xB398E0B7 EQ PUSH2 0x23F JUMPI PUSH2 0xE1 JUMP JUMPDEST DUP1 PUSH4 0x3A0D17B2 GT PUSH2 0xBA JUMPI DUP1 PUSH4 0x3A0D17B2 EQ PUSH2 0x149 JUMPI DUP1 PUSH4 0x4E43603A EQ PUSH2 0x185 JUMPI DUP1 PUSH4 0x60FE47B1 EQ PUSH2 0x1C1 JUMPI DUP1 PUSH4 0x6D4CE63C EQ PUSH2 0x1E9 JUMPI PUSH2 0xE1 JUMP JUMPDEST DUP1 PUSH4 0x1003E2D2 EQ PUSH2 0xE3 JUMPI DUP1 PUSH4 0x1DC05F17 EQ PUSH2 0x10B JUMPI DUP1 PUSH4 0x2BAECEB7 EQ PUSH2 0x133 JUMPI PUSH2 0xE1 JUMP JUMPDEST JUMPDEST STOP JUMPDEST CALLVALUE DUP1 ISZERO PUSH2 0xEE JUMPI PUSH0 PUSH0 REVERT JUMPDEST POP PUSH2 0x109 PUSH1 0x4 DUP1 CALLDATASIZE SUB DUP2 ADD SWAP1 PUSH2 0x104 SWAP2 SWAP1 PUSH2 0x8D5 JUMP JUMPDEST PUSH2 0x2EB JUMP JUMPDEST STOP JUMPDEST CALLVALUE DUP1 ISZERO PUSH2 0x116 JUMPI PUSH0 PUSH0 REVERT JUMPDEST POP PUSH2 0x131 PUSH1 0x4 DUP1 CALLDATASIZE SUB DUP2 ADD SWAP1 PUSH2 0x12C SWAP2 SWAP1 PUSH2 0x8D5 JUMP JUMPDEST PUSH2 0x352 JUMP JUMPDEST STOP JUMPDEST CALLVALUE DUP1 ISZERO PUSH2 0x13E JUMPI PUSH0 PUSH0 REVERT JUMPDEST POP PUSH2 0x147 PUSH2 0x3F5 JUMP JUMPDEST STOP JUMPDEST CALLVALUE DUP1 ISZERO PUSH2 0x154 JUMPI PUSH0 PUSH0 REVERT JUMPDEST POP PUSH2 0x16F PUSH1 0x4 DUP1 CALLDATASIZE SUB DUP2 ADD SWAP1 PUSH2 0x16A SWAP2 SWAP1 PUSH2 0x95A JUMP JUMPDEST PUSH2 0x497 JUMP JUMPDEST PUSH1 0x40 MLOAD PUSH2 0x17C SWAP2 SWAP1 PUSH2 0x994 JUMP JUMPDEST PUSH1 0x40 MLOAD DUP1 SWAP2 SUB SWAP1 RETURN JUMPDEST CALLVALUE DUP1 ISZERO PUSH2 0x190 JUMPI PUSH0 PUSH0 REVERT JUMPDEST POP PUSH2 0x1AB PUSH1 0x4 DUP1 CALLDATASIZE SUB DUP2 ADD SWAP1 PUSH2 0x1A6 SWAP2 SWAP1 PUSH2 0x95A JUMP JUMPDEST PUSH2 0x4AC JUMP JUMPDEST PUSH1 0x40 MLOAD PUSH2 0x1B8 SWAP2 SWAP1 PUSH2 0x994 JUMP JUMPDEST PUSH1 0x40 MLOAD DUP1 SWAP2 SUB SWAP1 RETURN JUMPDEST CALLVALUE DUP1 ISZERO PUSH2 0x1CC JUMPI PUSH0 PUSH0 REVERT JUMPDEST POP PUSH2 0x1E7 PUSH1 0x4 DUP1 CALLDATASIZE SUB DUP2 ADD SWAP1 PUSH2 0x1E2 SWAP2 SWAP1 PUSH2 0x8D5 JUMP JUMPDEST PUSH2 0x4F2 JUMP JUMPDEST STOP JUMPDEST CALLVALUE DUP1 ISZERO PUSH2 0x1F4 JUMPI PUSH0 PUSH0 REVERT JUMPDEST POP PUSH2 0x1FD PUSH2 0x548 JUMP JUMPDEST PUSH1 0x40 MLOAD PUSH2 0x20A SWAP2 SWAP1 PUSH2 0x994 JUMP JUMPDEST PUSH1 0x40 MLOAD DUP1 SWAP2 SUB SWAP1 RETURN JUMPDEST CALLVALUE DUP1 ISZERO PUSH2 0x21E JUMPI PUSH0 PUSH0 REVERT JUMPDEST POP PUSH2 0x227 PUSH2 0x550 JUMP JUMPDEST STOP JUMPDEST CALLVALUE DUP1 ISZERO PUSH2 0x234 JUMPI PUSH0 PUSH0 REVERT JUMPDEST POP PUSH2 0x23D PUSH2 0x5B7 JUMP JUMPDEST STOP JUMPDEST CALLVALUE DUP1 ISZERO PUSH2 0x24A JUMPI PUSH0 PUSH0 REVERT JUMPDEST POP PUSH2 0x253 PUSH2 0x616 JUMP JUMPDEST PUSH1 0x40 MLOAD PUSH2 0x260 SWAP2 SWAP1 PUSH2 0x9BC JUMP JUMPDEST PUSH1 0x40 MLOAD DUP1 SWAP2 SUB SWAP1 RETURN JUMPDEST CALLVALUE DUP1 ISZERO PUSH2 0x274 JUMPI PUSH0 PUSH0 REVERT JUMPDEST POP PUSH2 0x27D PUSH2 0x63B JUMP JUMPDEST PUSH1 0x40 MLOAD PUSH2 0x28C SWAP4 SWAP3 SWAP2 SWAP1 PUSH2 0x9D5 JUMP JUMPDEST PUSH1 0x40 MLOAD DUP1 SWAP2 SUB SWAP1 RETURN JUMPDEST CALLVALUE DUP1 ISZERO PUSH2 0x2A0 JUMPI PUSH0 PUSH0 REVERT JUMPDEST POP PUSH2 0x2A9 PUSH2 0x670 JUMP JUMPDEST STOP JUMPDEST CALLVALUE DUP1 ISZERO PUSH2 0x2B6 JUMPI PUSH0 PUSH0 REVERT JUMPDEST POP PUSH2 0x2BF PUSH2 0x6D7 JUMP JUMPDEST STOP JUMPDEST CALLVALUE DUP1 ISZERO PUSH2 0x2CC JUMPI PUSH0 PUSH0 REVERT JUMPDEST POP PUSH2 0x2D5 PUSH2 0x724 JUMP JUMPDEST PUSH1 0x40 MLOAD PUSH2 0x2E2 SWAP2 SWAP1 PUSH2 0x994 JUMP JUMPDEST PUSH1 0x40 MLOAD DUP1 SWAP2 SUB SWAP1 RETURN JUMPDEST PUSH0 PUSH0 SLOAD SWAP1 POP DUP2 PUSH0 PUSH0 DUP3 DUP3 SLOAD PUSH2 0x300 SWAP2 SWAP1 PUSH2 0xA37 JUMP JUMPDEST SWAP3 POP POP DUP2 SWAP1 SSTORE POP PUSH2 0x346 PUSH1 0x40 MLOAD DUP1 PUSH1 0x40 ADD PUSH1 0x40 MSTORE DUP1 PUSH1 0x3 DUP2 MSTORE PUSH1 0x20 ADD PUSH32 0x6164640000000000000000000000000000000000000000000000000000000000 DUP2 MSTORE POP DUP3 PUSH2 0x72A JUMP JUMPDEST PUSH2 0x34E PUSH2 0x82B JUMP JUMPDEST POP POP JUMP JUMPDEST PUSH0 PUSH0 SLOAD SWAP1 POP DUP2 PUSH0 SLOAD LT ISZERO PUSH2 0x39B JUMPI PUSH1 0x40 MLOAD PUSH32 0x8C379A000000000000000000000000000000000000000000000000000000000 DUP2 MSTORE PUSH1 0x4 ADD PUSH2 0x392 SWAP1 PUSH2 0xAC4 JUMP JUMPDEST PUSH1 0x40 MLOAD DUP1 SWAP2 SUB SWAP1 REVERT JUMPDEST DUP2 PUSH0 PUSH0 DUP3 DUP3 SLOAD PUSH2 0x3AB SWAP2 SWAP1 PUSH2 0xAE2 JUMP JUMPDEST SWAP3 POP POP DUP2 SWAP1 SSTORE POP PUSH2 0x3F1 PUSH1 0x40 MLOAD DUP1 PUSH1 0x40 ADD PUSH1 0x40 MSTORE DUP1 PUSH1 0x8 DUP2 MSTORE PUSH1 0x20 ADD PUSH32 0x7375627472616374000000000000000000000000000000000000000000000000 DUP2 MSTORE POP DUP3 PUSH2 0x72A JUMP JUMPDEST POP POP JUMP JUMPDEST PUSH0 PUSH0 SLOAD SWAP1 POP PUSH0 PUSH0 SLOAD GT PUSH2 0x43D JUMPI PUSH1 0x40 MLOAD PUSH32 0x8C379A000000000000000000000000000000000000000000000000000000000 DUP2 MSTORE PUSH1 0x4 ADD PUSH2 0x434 SWAP1 PUSH2 0xB5F JUMP JUMPDEST PUSH1 0x40 MLOAD DUP1 SWAP2 SUB SWAP1 REVERT JUMPDEST PUSH1 0x1 PUSH0 PUSH0 DUP3 DUP3 SLOAD PUSH2 0x44E SWAP2 SWAP1 PUSH2 0xAE2 JUMP JUMPDEST SWAP3 POP POP DUP2 SWAP1 SSTORE POP PUSH2 0x494 PUSH1 0x40 MLOAD DUP1 PUSH1 0x40 ADD PUSH1 0x40 MSTORE DUP1 PUSH1 0x9 DUP2 MSTORE PUSH1 0x20 ADD PUSH32 0x64656372656D656E740000000000000000000000000000000000000000000000 DUP2 MSTORE POP DUP3 PUSH2 0x72A JUMP JUMPDEST POP JUMP JUMPDEST PUSH1 0x3 PUSH1 0x20 MSTORE DUP1 PUSH0 MSTORE PUSH1 0x40 PUSH0 KECCAK256 PUSH0 SWAP2 POP SWAP1 POP SLOAD DUP2 JUMP JUMPDEST PUSH0 PUSH1 0x3 PUSH0 DUP4 PUSH20 0xFFFFFFFFFFFFFFFFFFFFFFFFFFFFFFFFFFFFFFFF AND PUSH20 0xFFFFFFFFFFFFFFFFFFFFFFFFFFFFFFFFFFFFFFFF AND DUP2 MSTORE PUSH1 0x20 ADD SWAP1 DUP2 MSTORE PUSH1 0x20 ADD PUSH0 KECCAK256 SLOAD SWAP1 POP SWAP2 SWAP1 POP JUMP JUMPDEST PUSH0 PUSH0 SLOAD SWAP1 POP DUP2 PUSH0 DUP2 SWAP1 SSTORE POP PUSH2 0x53C PUSH1 0x40 MLOAD DUP1 PUSH1 0x40 ADD PUSH1 0x40 MSTORE DUP1 PUSH1 0x3 DUP2 MSTORE PUSH1 0x20 ADD PUSH32 0x7365740000000000000000000000000000000000000000000000000000000000 DUP2 MSTORE POP DUP3 PUSH2 0x72A JUMP JUMPDEST PUSH2 0x544 PUSH2 0x82B JUMP JUMPDEST POP POP JUMP JUMPDEST PUSH0 PUSH0 SLOAD SWAP1 POP SWAP1 JUMP JUMPDEST PUSH0 PUSH0 SLOAD SWAP1 POP PUSH1 0x2 PUSH0 PUSH0 DUP3 DUP3 SLOAD PUSH2 0x566 SWAP2 SWAP1 PUSH2 0xB7D JUMP JUMPDEST SWAP3 POP POP DUP2 SWAP1 SSTORE POP PUSH2 0x5AC PUSH1 0x40 MLOAD DUP1 PUSH1 0x40 ADD PUSH1 0x40 MSTORE DUP1 PUSH1 0x6 DUP2 MSTORE PUSH1 0x20 ADD PUSH32 0x646F75626C650000000000000000000000000000000000000000000000000000 DUP2 MSTORE POP DUP3 PUSH2 0x72A JUMP JUMPDEST PUSH2 0x5B4 PUSH2 0x82B JUMP JUMPDEST POP JUMP JUMPDEST PUSH0 PUSH0 SLOAD SWAP1 POP PUSH1 0x2 PUSH0 PUSH0 DUP3 DUP3 SLOAD PUSH2 0x5CD SWAP2 SWAP1 PUSH2 0xBEB JUMP JUMPDEST SWAP3 POP POP DUP2 SWAP1 SSTORE POP PUSH2 0x613 PUSH1 0x40 MLOAD DUP1 PUSH1 0x40 ADD PUSH1 0x40 MSTORE DUP1 PUSH1 0x5 DUP2 MSTORE PUSH1 0x20 ADD PUSH32 0x68616C7665000000000000000000000000000000000000000000000000000000 DUP2 MSTORE POP DUP3 PUSH2 0x72A JUMP JUMPDEST POP JUMP JUMPDEST PUSH1 0x2 PUSH0 SWAP1 SLOAD SWAP1 PUSH2 0x100 EXP SWAP1 DIV PUSH20 0xFFFFFFFFFFFFFFFFFFFFFFFFFFFFFFFFFFFFFFFF AND DUP2 JUMP JUMPDEST PUSH0 PUSH0 PUSH0 PUSH0 SLOAD PUSH1 0x1 SLOAD PUSH1 0x2 PUSH0 SWAP1 SLOAD SWAP1 PUSH2 0x100 EXP SWAP1 DIV PUSH20 0xFFFFFFFFFFFFFFFFFFFFFFFFFFFFFFFFFFFFFFFF AND SWAP3 POP SWAP3 POP SWAP3 POP SWAP1 SWAP2 SWAP3 JUMP JUMPDEST PUSH0 PUSH0 SLOAD SWAP1 POP PUSH1 0x1 PUSH0 PUSH0 DUP3 DUP3 SLOAD PUSH2 0x686 SWAP2 SWAP1 PUSH2 0xA37 JUMP JUMPDEST SWAP3 POP POP DUP2 SWAP1 SSTORE POP PUSH2 0x6CC PUSH1 0x40 MLOAD DUP1 PUSH1 0x40 ADD PUSH1 0x40 MSTORE DUP1 PUSH1 0x9 DUP2 MSTORE PUSH1 0x20 ADD PUSH32 0x696E6372656D656E740000000000000000000000000000000000000000000000 DUP2 MSTORE POP DUP3 PUSH2 0x72A JUMP JUMPDEST PUSH2 0x6D4 PUSH2 0x82B JUMP JUMPDEST POP JUMP JUMPDEST PUSH0 PUSH0 SLOAD SWAP1 POP PUSH0 PUSH0 DUP2 SWAP1 SSTORE POP PUSH2 0x721 PUSH1 0x40 MLOAD DUP1 PUSH1 0x40 ADD PUSH1 0x40 MSTORE DUP1 PUSH1 0x5 DUP2 MSTORE PUSH1 0x20 ADD PUSH32 0x7265736574000000000000000000000000000000000000000000000000000000 DUP2 MSTORE POP DUP3 PUSH2 0x72A JUMP JUMPDEST POP JUMP JUMPDEST PUSH1 0x1 SLOAD DUP2 JUMP JUMPDEST PUSH1 0x1 DUP1 PUSH0 DUP3 DUP3 SLOAD PUSH2 0x73B SWAP2 SWAP1 PUSH2 0xA37 JUMP JUMPDEST SWAP3 POP POP DUP2 SWAP1 SSTORE POP PUSH1 0x1 PUSH1 0x3 PUSH0 CALLER PUSH20 0xFFFFFFFFFFFFFFFFFFFFFFFFFFFFFFFFFFFFFFFF AND PUSH20 0xFFFFFFFFFFFFFFFFFFFFFFFFFFFFFFFFFFFFFFFF AND DUP2 MSTORE PUSH1 0x20 ADD SWAP1 DUP2 MSTORE PUSH1 0x20 ADD PUSH0 KECCAK256 PUSH0 DUP3 DUP3 SLOAD PUSH2 0x78F SWAP2 SWAP1 PUSH2 0xA37 JUMP JUMPDEST SWAP3 POP POP DUP2 SWAP1 SSTORE POP CALLER PUSH1 0x2 PUSH0 PUSH2 0x100 EXP DUP2 SLOAD DUP2 PUSH20 0xFFFFFFFFFFFFFFFFFFFFFFFFFFFFFFFFFFFFFFFF MUL NOT AND SWAP1 DUP4 PUSH20 0xFFFFFFFFFFFFFFFFFFFFFFFFFFFFFFFFFFFFFFFF AND MUL OR SWAP1 SSTORE POP DUP1 PUSH0 SLOAD CALLER PUSH20 0xFFFFFFFFFFFFFFFFFFFFFFFFFFFFFFFFFFFFFFFF AND PUSH32 0x185B9E2DADA2F4B94FFECCF47BED30BFC83C4905A1D6DBAD66A5C56B69F9789C DUP6 PUSH1 0x40 MLOAD PUSH2 0x81F SWAP2 SWAP1 PUSH2 0xC7B JUMP JUMPDEST PUSH1 0x40 MLOAD DUP1 SWAP2 SUB SWAP1 LOG4 POP POP JUMP JUMPDEST PUSH0 PUSH1 0xA PUSH0 SLOAD PUSH2 0x83A SWAP2 SWAP1 PUSH2 0xC9B JUMP JUMPDEST EQ DUP1 ISZERO PUSH2 0x848 JUMPI POP PUSH0 PUSH0 SLOAD EQ ISZERO JUMPDEST ISZERO PUSH2 0x89C JUMPI CALLER PUSH20 0xFFFFFFFFFFFFFFFFFFFFFFFFFFFFFFFFFFFFFFFF AND PUSH0 SLOAD PUSH32 0xF4AFE5414FC2845D7C08DEBA18B72F6792E6FDB0867F4FCEFD8B6A451A152098 PUSH1 0x40 MLOAD PUSH2 0x893 SWAP1 PUSH2 0xD15 JUMP JUMPDEST PUSH1 0x40 MLOAD DUP1 SWAP2 SUB SWAP1 LOG3 JUMPDEST JUMP JUMPDEST PUSH0 PUSH0 REVERT JUMPDEST PUSH0 DUP2 SWAP1 POP SWAP2 SWAP1 POP JUMP JUMPDEST PUSH2 0x8B4 DUP2 PUSH2 0x8A2 JUMP JUMPDEST DUP2 EQ PUSH2 0x8BE JUMPI PUSH0 PUSH0 REVERT JUMPDEST POP JUMP JUMPDEST PUSH0 DUP2 CALLDATALOAD SWAP1 POP PUSH2 0x8CF DUP2 PUSH2 0x8AB JUMP JUMPDEST SWAP3 SWAP2 POP POP JUMP JUMPDEST PUSH0 PUSH1 0x20 DUP3 DUP5 SUB SLT ISZERO PUSH2 0x8EA JUMPI PUSH2 0x8E9 PUSH2 0x89E JUMP JUMPDEST JUMPDEST PUSH0 PUSH2 0x8F7 DUP5 DUP3 DUP6 ADD PUSH2 0x8C1 JUMP JUMPDEST SWAP2 POP POP SWAP3 SWAP2 POP POP JUMP JUMPDEST PUSH0 PUSH20 0xFFFFFFFFFFFFFFFFFFFFFFFFFFFFFFFFFFFFFFFF DUP3 AND SWAP1 POP SWAP2 SWAP1 POP JUMP JUMPDEST PUSH0 PUSH2 0x929 DUP3 PUSH2 0x900 JUMP JUMPDEST SWAP1 POP SWAP2 SWAP1 POP JUMP JUMPDEST PUSH2 0x939 DUP2 PUSH2 0x91F JUMP JUMPDEST DUP2 EQ PUSH2 0x943 JUMPI PUSH0 PUSH0 REVERT JUMPDEST POP JUMP JUMPDEST PUSH0 DUP2 CALLDATALOAD SWAP1 POP PUSH2 0x954 DUP2 PUSH2 0x930 JUMP JUMPDEST SWAP3 SWAP2 POP POP JUMP JUMPDEST PUSH0 PUSH1 0x20 DUP3 DUP5 SUB SLT ISZERO PUSH2 0x96F JUMPI PUSH2 0x96E PUSH2 0x89E JUMP JUMPDEST JUMPDEST PUSH0 PUSH2 0x97C DUP5 DUP3 DUP6 ADD PUSH2 0x946 JUMP JUMPDEST SWAP2 POP POP SWAP3 SWAP2 POP POP JUMP JUMPDEST PUSH2 0x98E DUP2 PUSH2 0x8A2 JUMP JUMPDEST DUP3 MSTORE POP POP JUMP JUMPDEST PUSH0 PUSH1 0x20 DUP3 ADD SWAP1 POP PUSH2 0x9A7 PUSH0 DUP4 ADD DUP5 PUSH2 0x985 JUMP JUMPDEST SWAP3 SWAP2 POP POP JUMP JUMPDEST PUSH2 0x9B6 DUP2 PUSH2 0x91F JUMP JUMPDEST DUP3 MSTORE POP POP JUMP JUMPDEST PUSH0 PUSH1 0x20 DUP3 ADD SWAP1 POP PUSH2 0x9CF PUSH0 DUP4 ADD DUP5 PUSH2 0x9AD JUMP JUMPDEST SWAP3 SWAP2 POP POP JUMP JUMPDEST PUSH0 PUSH1 0x60 DUP3 ADD SWAP1 POP PUSH2 0x9E8 PUSH0 DUP4 ADD DUP7 PUSH2 0x985 JUMP JUMPDEST PUSH2 0x9F5 PUSH1 0x20 DUP4 ADD DUP6 PUSH2 0x985 JUMP JUMPDEST PUSH2 0xA02 PUSH1 0x40 DUP4 ADD DUP5 PUSH2 0x9AD JUMP JUMPDEST SWAP5 SWAP4 POP POP POP POP JUMP JUMPDEST PUSH32 0x4E487B7100000000000000000000000000000000000000000000000000000000 PUSH0 MSTORE PUSH1 0x11 PUSH1 0x4 MSTORE PUSH1 0x24 PUSH0 REVERT JUMPDEST PUSH0 PUSH2 0xA41 DUP3 PUSH2 0x8A2 JUMP JUMPDEST SWAP2 POP PUSH2 0xA4C DUP4 PUSH2 0x8A2 JUMP JUMPDEST SWAP3 POP DUP3 DUP3 ADD SWAP1 POP DUP1 DUP3 GT ISZERO PUSH2 0xA64 JUMPI PUSH2 0xA63 PUSH2 0xA0A JUMP JUMPDEST JUMPDEST SWAP3 SWAP2 POP POP JUMP JUMPDEST PUSH0 DUP3 DUP3 MSTORE PUSH1 0x20 DUP3 ADD SWAP1 POP SWAP3 SWAP2 POP POP JUMP JUMPDEST PUSH32 0x556E646572666C6F770000000000000000000000000000000000000000000000 PUSH0 DUP3 ADD MSTORE POP JUMP JUMPDEST PUSH0 PUSH2 0xAAE PUSH1 0x9 DUP4 PUSH2 0xA6A JUMP JUMPDEST SWAP2 POP PUSH2 0xAB9 DUP3 PUSH2 0xA7A JUMP JUMPDEST PUSH1 0x20 DUP3 ADD SWAP1 POP SWAP2 SWAP1 POP JUMP JUMPDEST PUSH0 PUSH1 0x20 DUP3 ADD SWAP1 POP DUP2 DUP2 SUB PUSH0 DUP4 ADD MSTORE PUSH2 0xADB DUP2 PUSH2 0xAA2 JUMP JUMPDEST SWAP1 POP SWAP2 SWAP1 POP JUMP JUMPDEST PUSH0 PUSH2 0xAEC DUP3 PUSH2 0x8A2 JUMP JUMPDEST SWAP2 POP PUSH2 0xAF7 DUP4 PUSH2 0x8A2 JUMP JUMPDEST SWAP3 POP DUP3 DUP3 SUB SWAP1 POP DUP2 DUP2 GT ISZERO PUSH2 0xB0F JUMPI PUSH2 0xB0E PUSH2 0xA0A JUMP JUMPDEST JUMPDEST SWAP3 SWAP2 POP POP JUMP JUMPDEST PUSH32 0x43616E6E6F742064656372656D656E742062656C6F77207A65726F0000000000 PUSH0 DUP3 ADD MSTORE POP JUMP JUMPDEST PUSH0 PUSH2 0xB49 PUSH1 0x1B DUP4 PUSH2 0xA6A JUMP JUMPDEST SWAP2 POP PUSH2 0xB54 DUP3 PUSH2 0xB15 JUMP JUMPDEST PUSH1 0x20 DUP3 ADD SWAP1 POP SWAP2 SWAP1 POP JUMP JUMPDEST PUSH0 PUSH1 0x20 DUP3 ADD SWAP1 POP DUP2 DUP2 SUB PUSH0 DUP4 ADD MSTORE PUSH2 0xB76 DUP2 PUSH2 0xB3D JUMP JUMPDEST SWAP1 POP SWAP2 SWAP1 POP JUMP JUMPDEST PUSH0 PUSH2 0xB87 DUP3 PUSH2 0x8A2 JUMP JUMPDEST SWAP2 POP PUSH2 0xB92 DUP4 PUSH2 0x8A2 JUMP JUMPDEST SWAP3 POP DUP3 DUP3 MUL PUSH2 0xBA0 DUP2 PUSH2 0x8A2 JUMP JUMPDEST SWAP2 POP DUP3 DUP3 DIV DUP5 EQ DUP4 ISZERO OR PUSH2 0xBB7 JUMPI PUSH2 0xBB6 PUSH2 0xA0A JUMP JUMPDEST JUMPDEST POP SWAP3 SWAP2 POP POP JUMP JUMPDEST PUSH32 0x4E487B7100000000000000000000000000000000000000000000000000000000 PUSH0 MSTORE PUSH1 0x12 PUSH1 0x4 MSTORE PUSH1 0x24 PUSH0 REVERT JUMPDEST PUSH0 PUSH2 0xBF5 DUP3 PUSH2 0x8A2 JUMP JUMPDEST SWAP2 POP PUSH2 0xC00 DUP4 PUSH2 0x8A2 JUMP JUMPDEST SWAP3 POP DUP3 PUSH2 0xC10 JUMPI PUSH2 0xC0F PUSH2 0xBBE JUMP JUMPDEST JUMPDEST DUP3 DUP3 DIV SWAP1 POP SWAP3 SWAP2 POP POP JUMP JUMPDEST PUSH0 DUP2 MLOAD SWAP1 POP SWAP2 SWAP1 POP JUMP JUMPDEST DUP3 DUP2 DUP4 MCOPY PUSH0 DUP4 DUP4 ADD MSTORE POP POP POP JUMP JUMPDEST PUSH0 PUSH1 0x1F NOT PUSH1 0x1F DUP4 ADD AND SWAP1 POP SWAP2 SWAP1 POP JUMP JUMPDEST PUSH0 PUSH2 0xC4D DUP3 PUSH2 0xC1B JUMP JUMPDEST PUSH2 0xC57 DUP2 DUP6 PUSH2 0xA6A JUMP JUMPDEST SWAP4 POP PUSH2 0xC67 DUP2 DUP6 PUSH1 0x20 DUP7 ADD PUSH2 0xC25 JUMP JUMPDEST PUSH2 0xC70 DUP2 PUSH2 0xC33 JUMP JUMPDEST DUP5 ADD SWAP2 POP POP SWAP3 SWAP2 POP POP JUMP JUMPDEST PUSH0 PUSH1 0x20 DUP3 ADD SWAP1 POP DUP2 DUP2 SUB PUSH0 DUP4 ADD MSTORE PUSH2 0xC93 DUP2 DUP5 PUSH2 0xC43 JUMP JUMPDEST SWAP1 POP SWAP3 SWAP2 POP POP JUMP JUMPDEST PUSH0 PUSH2 0xCA5 DUP3 PUSH2 0x8A2 JUMP JUMPDEST SWAP2 POP PUSH2 0xCB0 DUP4 PUSH2 0x8A2 JUMP JUMPDEST SWAP3 POP DUP3 PUSH2 0xCC0 JUMPI PUSH2 0xCBF PUSH2 0xBBE JUMP JUMPDEST JUMPDEST DUP3 DUP3 MOD SWAP1 POP SWAP3 SWAP2 POP POP JUMP JUMPDEST PUSH32 0x526561636865642061206D756C7469706C65206F662031302100000000000000 PUSH0 DUP3 ADD MSTORE POP JUMP JUMPDEST PUSH0 PUSH2 0xCFF PUSH1 0x19 DUP4 PUSH2 0xA6A JUMP JUMPDEST SWAP2 POP PUSH2 0xD0A DUP3 PUSH2 0xCCB JUMP JUMPDEST PUSH1 0x20 DUP3 ADD SWAP1 POP SWAP2 SWAP1 POP JUMP JUMPDEST PUSH0 PUSH1 0x20 DUP3 ADD SWAP1 POP DUP2 DUP2 SUB PUSH0 DUP4 ADD MSTORE PUSH2 0xD2C DUP2 PUSH2 0xCF3 JUMP JUMPDEST SWAP1 POP SWAP2 SWAP1 POP JUMP INVALID LOG2 PUSH5 0x6970667358 0x22 SLT KECCAK256 SWAP10 ISZERO PUSH29 0xF7B4263CB4EE26F2062A54A91714893B959338BEF811B531F9831D940D PUSH5 0x736F6C6343 STOP ADDMOD 0x1E STOP CALLER "
		},
		"gasEstimates": {
			"creation": {
				"codeDepositCost": "686600",
				"executionCost": "10744",
				"totalCost": "697344"
			},
			"external": {
				"": "174",
				"add(uint256)": "infinite",
				"decrement()": "infinite",
				"double()": "infinite",
				"get()": "2520",
				"getStats()": "infinite",
				"getUserStats(address)": "2874",
				"halve()": "infinite",
				"increment()": "infinite",
				"lastChanger()": "2575",
				"reset()": "infinite",
				"set(uint256)": "infinite",
				"subtract(uint256)": "infinite",
				"totalOperations()": "2513",
				"userOperations(address)": "2825"
			},
			"internal": {
				"_checkMilestone()": "infinite",
				"_logChange(string memory,uint256)": "infinite"
			}
		},
		"methodIdentifiers": {
			"add(uint256)": "1003e2d2",
			"decrement()": "2baeceb7",
			"double()": "8fdb7189",
			"get()": "6d4ce63c",
			"getStats()": "c59d4847",
			"getUserStats(address)": "4e43603a",
			"halve()": "9dc9340a",
			"increment()": "d09de08a",
			"lastChanger()": "b398e0b7",
			"reset()": "d826f88f",
			"set(uint256)": "60fe47b1",
			"subtract(uint256)": "1dc05f17",
			"totalOperations()": "ed232029",
			"userOperations(address)": "3a0d17b2"
		}
	},
	"abi": [
		{
			"inputs": [],
			"stateMutability": "nonpayable",
			"type": "constructor"
		},
		{
			"anonymous": false,
			"inputs": [
				{
					"indexed": true,
					"internalType": "uint256",
					"name": "value",
					"type": "uint256"
				},
				{
					"indexed": true,
					"internalType": "address",
					"name": "achiever",
					"type": "address"
				},
				{
					"indexed": false,
					"internalType": "string",
					"name": "message",
					"type": "string"
				}
			],
			"name": "Milestone",
			"type": "event"
		},
		{
			"anonymous": false,
			"inputs": [
				{
					"indexed": true,
					"internalType": "address",
					"name": "changer",
					"type": "address"
				},
				{
					"indexed": true,
					"internalType": "uint256",
					"name": "newValue",
					"type": "uint256"
				},
				{
					"indexed": true,
					"internalType": "uint256",
					"name": "oldValue",
					"type": "uint256"
				},
				{
					"indexed": false,
					"internalType": "string",
					"name": "operation",
					"type": "string"
				}
			],
			"name": "ValueChanged",
			"type": "event"
		},
		{
			"stateMutability": "payable",
			"type": "fallback"
		},
		{
			"inputs": [
				{
					"internalType": "uint256",
					"name": "amount",
					"type": "uint256"
				}
			],
			"name": "add",
			"outputs": [],
			"stateMutability": "nonpayable",
			"type": "function"
		},
		{
			"inputs": [],
			"name": "decrement",
			"outputs": [],
			"stateMutability": "nonpayable",
			"type": "function"
		},
		{
			"inputs": [],
			"name": "double",
			"outputs": [],
			"stateMutability": "nonpayable",
			"type": "function"
		},
		{
			"inputs": [],
			"name": "get",
			"outputs": [
				{
					"internalType": "uint256",
					"name": "",
					"type": "uint256"
				}
			],
			"stateMutability": "view",
			"type": "function"
		},
		{
			"inputs": [],
			"name": "getStats",
			"outputs": [
				{
					"internalType": "uint256",
					"name": "",
					"type": "uint256"
				},
				{
					"internalType": "uint256",
					"name": "",
					"type": "uint256"
				},
				{
					"internalType": "address",
					"name": "",
					"type": "address"
				}
			],
			"stateMutability": "view",
			"type": "function"
		},
		{
			"inputs": [
				{
					"internalType": "address",
					"name": "user",
					"type": "address"
				}
			],
			"name": "getUserStats",
			"outputs": [
				{
					"internalType": "uint256",
					"name": "",
					"type": "uint256"
				}
			],
			"stateMutability": "view",
			"type": "function"
		},
		{
			"inputs": [],
			"name": "halve",
			"outputs": [],
			"stateMutability": "nonpayable",
			"type": "function"
		},
		{
			"inputs": [],
			"name": "increment",
			"outputs": [],
			"stateMutability": "nonpayable",
			"type": "function"
		},
		{
			"inputs": [],
			"name": "lastChanger",
			"outputs": [
				{
					"internalType": "address",
					"name": "",
					"type": "address"
				}
			],
			"stateMutability": "view",
			"type": "function"
		},
		{
			"inputs": [],
			"name": "reset",
			"outputs": [],
			"stateMutability": "nonpayable",
			"type": "function"
		},
		{
			"inputs": [
				{
					"internalType": "uint256",
					"name": "newValue",
					"type": "uint256"
				}
			],
			"name": "set",
			"outputs": [],
			"stateMutability": "nonpayable",
			"type": "function"
		},
		{
			"inputs": [
				{
					"internalType": "uint256",
					"name": "amount",
					"type": "uint256"
				}
			],
			"name": "subtract",
			"outputs": [],
			"stateMutability": "nonpayable",
			"type": "function"
		},
		{
			"inputs": [],
			"name": "totalOperations",
			"outputs": [
				{
					"internalType": "uint256",
					"name": "",
					"type": "uint256"
				}
			],
			"stateMutability": "view",
			"type": "function"
		},
		{
			"inputs": [
				{
					"internalType": "address",
					"name": "",
					"type": "address"
				}
			],
			"name": "userOperations",
			"outputs": [
				{
					"internalType": "uint256",
					"name": "",
					"type": "uint256"
				}
			],
			"stateMutability": "view",
			"type": "function"
		},
		{
			"stateMutability": "payable",
			"type": "receive"
		}
	]
}